:020000040800F2
:10000000000002201D1A0008291800082F180008F7
:10001000351800083B1800084118000800000000CF
:10002000000000000000000000000000D162000895
:100030004718000800000000216500085518000856
:100040006D1A00086D1A00086D1A00086D1A000874
:100050006D1A00086D1A00086D1A00086D1A000864
:100060006D1A00086D1A00086D1A00086D1A000854
:100070006D1A00086D1A00086D1A00086D1A000844
:100080006D1A00086D1A00086D1A00086D1A000834
:100090006D1A00086D1A00086D1A00086D1A000824
:1000A0006D1A00086D1A00086D1A00086D1A000814
:1000B0006D1A00086D1A00086D1A00086D1A000804
:1000C0006D1A00086D1A00086D1A00086D1A0008F4
:1000D0006D1A00086D1A00086D1A00086D1A0008E4
:1000E0006D1A00086D1A00086D1A00086D1A0008D4
:1000F0006D1A00086D1A00086D1A00086D1A0008C4
:100100006D1A00086D1A00086D1A00086D1A0008B3
:100110006D1A00086D1A00086D1A00086D1A0008A3
:100120006D1A00086D1A00086D1A00086D1A000893
:100130006D1A00086D1A00086D1A00086D1A000883
:100140006D1A00086D1A00086D1A00086D1A000873
:100150006D1A00086D1A00086D1A00086D1A000863
:100160006D1A00086D1A00086D1A00086D1A000853
:100170006D1A00086D1A00086D1A000800000000D2
:080180006D1A00086D1A000859
:1001900010B5054C237833B9044B13B10448AFF3C1
:1001A00000800123237010BD000200200000000029
:1001B00010A7000808B5034B1BB103490348AFF370
:1001C000008008BD000000000402002010A7000805
:1001D000034613F8012B002AFBD1181A0138704787
:1001E00001F0FF01102A2BDB10F0070F08D010F8E8
:1001F000013B013A8B422DD010F0070F42B3F6D1EC
:10020000F0B441EA012141EA014122F007047FF004
:1002100000070023F0E80256083C85EA010586EA5B
:10022000010685FA47F5A3FA87F586FA47F6A5FA97
:1002300087F68EB9EED1F0BC01F0FF0102F00702A3
:1002400032B110F8013B013A83EA010313B1F8D14E
:100250000020704701387047002D06BF354603382F
:10026000073815F0010F07D1013015F4807F02BF68
:10027000013015F4C03F0130F0BC0138704700BFB9
:1002800081F0004102E000BF83F0004330B54FEA47
:1002900041044FEA430594EA050F08BF90EA020FB4
:1002A0001FBF54EA000C55EA020C7FEA645C7FEA47
:1002B000655C00F0E2804FEA5454D4EB5555B8BF6A
:1002C0006D420CDD2C4480EA020281EA030382EADB
:1002D000000083EA010180EA020281EA0303362D6D
:1002E00088BF30BD11F0004F4FEA01314FF4801C40
:1002F0004CEA113102D0404261EB410113F0004F52
:100300004FEA03334CEA133302D0524263EB430308
:1003100094EA050F00F0A780A4F10104D5F1200EA6
:100320000DDB02FA0EFC22FA05F2801841F1000101
:1003300003FA0EF2801843FA05F359410EE0A5F1D5
:1003400020050EF1200E012A03FA0EFC28BF4CF006
:10035000020C43FA05F3C01851EBE37101F00045BC
:1003600007D54FF0000EDCF1000C7EEB00006EEBC9
:100370000101B1F5801F1BD3B1F5001F0CD3490853
:100380005FEA30004FEA3C0C04F101044FEA4452AA
:1003900012F5800F80F09A80BCF1004F08BF5FEA31
:1003A000500C50F1000041EB045141EA050130BD11
:1003B0005FEA4C0C404141EB0101013C28BFB1F523
:1003C000801FE9D291F0000F04BF01460020B1FA6E
:1003D00081F308BF2033A3F10B03B3F120020CDA41
:1003E0000C3208DD02F1140CC2F10C0201FA0CF01F
:1003F00021FA02F10CE002F11402D8BFC2F1200C84
:1004000001FA02F120FA0CFCDCBF41EA0C01904039
:10041000E41AA2BF01EB0451294330BD6FEA040482
:100420001F3C1CDA0C340EDC04F11404C4F120026D
:1004300020FA04F001FA02F340EA030021FA04F37F
:1004400045EA030130BDC4F10C04C4F1200220FAD6
:1004500002F001FA04F340EA0300294630BD21FA14
:1004600004F0294630BD94F0000F83F4801306BFDA
:1004700081F480110134013D4EE77FEA645C18BFCE
:100480007FEA655C29D094EA050F08BF90EA020F65
:1004900005D054EA000C04BF1946104630BD91EA5D
:1004A000030F1EBF0021002030BD5FEA545C05D160
:1004B0004000494128BF41F0004130BD14F580049F
:1004C0003CBF01F5801130BD01F0004545F0FE4113
:1004D00041F470014FF0000030BD7FEA645C1ABF48
:1004E000194610467FEA655C1CBF0B46024650EA7F
:1004F000013406BF52EA033591EA030F41F40021AB
:1005000030BD00BF90F0000F04BF0021704730B530
:100510004FF4806404F132044FF000054FF0000105
:1005200050E700BF90F0000F04BF0021704730B5C6
:100530004FF4806404F1320410F0004548BF40429B
:100540004FF000013EE700BF42004FEAE2014FEAF0
:1005500031014FEA02701FBF12F07F4393F07F4FCB
:1005600081F06051704732F07F4208BF704793F0CE
:100570007F4F04BF41F40021704730B54FF46074E1
:1005800001F0004521F000411CE700BF50EA0102E4
:1005900008BF704730B54FF000050AE050EA01028D
:1005A00008BF704730B511F0004502D5404261EBFD
:1005B00041014FF4806404F132045FEA915C3FF43E
:1005C000D8AE4FF003025FEADC0C18BF03325FEADB
:1005D000DC0C18BF033202EBDC02C2F1200300FA8C
:1005E00003FC20FA02F001FA03FE40EA0E0021FAB1
:1005F00002F11444BDE600BF70B54FF0FF0C4CF49F
:10060000E06C1CEA11541DBF1CEA135594EA0C0F50
:1006100095EA0C0F00F0DEF82C4481EA030621EA8B
:100620004C5123EA4C5350EA013518BF52EA0335C6
:1006300041F4801143F4801338D0A0FB02CE4FF078
:100640000005E1FB02E506F00042E0FB03E54FF0A8
:100650000006E1FB03569CF0000F18BF4EF0010EA0
:10066000A4F1FF04B6F5007F64F5407404D25FEA9C
:100670004E0E6D4146EB060642EAC62141EA55514F
:100680004FEAC52040EA5E504FEACE2EB4F1FD0C91
:1006900088BFBCF5E06F1ED8BEF1004F08BF5FEA0F
:1006A000500E50F1000041EB045170BD06F00046C1
:1006B00046EA010140EA020081EA0301B4EB5C046E
:1006C000C2BFD4EB0C0541EA045170BD41F4801166
:1006D0004FF0000E013C00F3AB8014F1360FDEBF8B
:1006E000002001F0004170BDC4F10004203C35DA67
:1006F0000C341BDC04F11404C4F1200500FA05F3EA
:1007000020FA04F001FA05F240EA020001F000428A
:1007100021F0004110EBD37021FA04F642EB060100
:100720005EEA430E08BF20EAD37070BDC4F10C042A
:10073000C4F1200500FA04F320FA05F001FA04F2EE
:1007400040EA020001F0004110EBD37041F10001DA
:100750005EEA430E08BF20EAD37070BDC4F12005E5
:1007600000FA05F24EEA020E20FA04F301FA05F24D
:1007700043EA020321FA04F001F0004121FA04F2F5
:1007800020EA020000EBD3705EEA430E08BF20EAC5
:10079000D37070BD94F0000F0FD101F000464000FF
:1007A00041EB010111F4801F08BF013CF7D041EA81
:1007B000060195F0000F18BF704703F00046520085
:1007C00043EB030313F4801F08BF013DF7D043EA56
:1007D0000603704794EA0C0F0CEA135518BF95EA0C
:1007E0000C0F0CD050EA410618BF52EA4306D1D193
:1007F00081EA030101F000414FF0000070BD50EAB2
:10080000410606BF1046194652EA430619D094EA3B
:100810000C0F02D150EA013613D195EA0C0F05D125
:1008200052EA03361CBF104619460AD181EA030179
:1008300001F0004141F0FE4141F470014FF0000031
:1008400070BD41F0FE4141F4780170BD70B54FF0CC
:10085000FF0C4CF4E06C1CEA11541DBF1CEA13554C
:1008600094EA0C0F95EA0C0F00F0A7F8A4EB05042E
:1008700081EA030E52EA03354FEA013100F0888025
:100880004FEA03334FF0805545EA131343EA1263EE
:100890004FEA022245EA111545EA10654FEA0026A3
:1008A0000EF000419D4208BF964244F1FD0404F55C
:1008B000407402D25B084FEA3202B61A65EB0305B8
:1008C0005B084FEA32024FF480104FF4002CB6EB75
:1008D000020E75EB030E22BFB61A754640EA0C00F5
:1008E0005B084FEA3202B6EB020E75EB030E22BF35
:1008F000B61A754640EA5C005B084FEA3202B6EB76
:10090000020E75EB030E22BFB61A754640EA9C0034
:100910005B084FEA3202B6EB020E75EB030E22BF04
:10092000B61A754640EADC0055EA060E18D04FEAC2
:10093000051545EA16754FEA06164FEAC30343EA62
:1009400052734FEAC2025FEA1C1CC0D111F4801F2F
:100950000BD141EA00014FF000004FF0004CB6E728
:1009600011F4801F04BF01430020B4F1FD0C88BFC7
:10097000BCF5E06F3FF6AFAEB5EB030C04BFB6EBD2
:10098000020C5FEA500C50F1000041EB045170BDC5
:100990000EF0004E4EEA113114EB5C04C2BFD4EBF2
:1009A0000C0541EA045170BD41F480114FF0000E76
:1009B000013C90E645EA060E8DE60CEA135594EAF2
:1009C0000C0F08BF95EA0C0F3FF43BAF94EA0C0FF5
:1009D0000AD150EA01347FF434AF95EA0C0F7FF46A
:1009E00025AF104619462CE795EA0C0F06D152EABE
:1009F00003353FF4FDAE1046194622E750EA4106A2
:100A000018BF52EA43067FF4C5AE50EA41047FF4B2
:100A10000DAF52EA43057FF4EBAE12E74FF0FF3C17
:100A200006E000BF4FF0010C02E000BF4FF0010CE8
:100A30004DF804CD4FEA410C7FEA6C5C4FEA430C61
:100A400018BF7FEA6C5C1BD001B050EA410C0CBFB0
:100A500052EA430C91EA030F02BF90EA020F002012
:100A6000704710F1000F91EA030F58BF994208BF79
:100A700090422CBFD8176FEAE37040F00100704736
:100A80004FEA410C7FEA6C5C02D150EA013C07D18D
:100A90004FEA430C7FEA6C5CD6D152EA033CD3D0D8
:100AA0005DF8040B704700BF8446104662468C46D2
:100AB0001946634600E000BF01B5FFF7B7FF002805
:100AC00048BF10F1000F01BD4DF808EDFFF7F4FF2E
:100AD0000CBF012000205DF808FB00BF4DF808EDB9
:100AE000FFF7EAFF34BF012000205DF808FB00BFDC
:100AF0004DF808EDFFF7E0FF94BF012000205DF8FE
:100B000008FB00BF4DF808EDFFF7CEFF94BF0120B2
:100B100000205DF808FB00BF4DF808EDFFF7C4FFAB
:100B200034BF012000205DF808FB00BF4FEA410CF4
:100B30007FEA6C5C02D150EA013C0AD14FEA430CD7
:100B40007FEA6C5C02D152EA033C02D14FF0000014
:100B500070474FF0010070474FEA410212F5001252
:100B600015D211D56FF47873B3EB625212D94FEAF4
:100B7000C12343F0004343EA505311F0004F23FADE
:100B800002F018BF404270474FF00000704750EA33
:100B9000013005D111F0004008BF6FF000407047F0
:100BA0004FF00000704700BF53B94AB9002908BF91
:100BB00000281CBF4FF0FF314FF0FF3000F074B938
:100BC000ADF1080C6DE904CE00F006F8DDF804E0A4
:100BD000DDE9022304B070472DE9F047089D044683
:100BE0008E46002B4DD18A42944669D9B2FA82F2E0
:100BF00052B101FA02F3C2F1200120FA01F10CFA1C
:100C000002FC41EA030E94404FEA1C48210CBEFB53
:100C1000F8F61FFA8CF708FB16E341EA034306FBDC
:100C200007F199420AD91CEB030306F1FF3080F06B
:100C30001F81994240F21C81023E63445B1AA4B2B8
:100C4000B3FBF8F008FB103344EA034400FB07F75A
:100C5000A7420AD91CEB040400F1FF3380F00A819B
:100C6000A74240F207816444023840EA0640E41B90
:100C700000261DB1D4400023C5E900433146BDE83C
:100C8000F0878B4209D9002D00F0EF800026C5E9DE
:100C9000000130463146BDE8F087B3FA83F6002EF6
:100CA0004AD18B4202D3824200F2F980841A61EB6E
:100CB000030301209E46002DE0D0C5E9004EDDE78C
:100CC00002B9FFDEB2FA82F2002A40F09280A1EB74
:100CD0000C014FEA1C471FFA8CFE0126200CB1FBC9
:100CE000F7F307FB131140EA01410EFB03F08842C2
:100CF00008D91CEB010103F1FF3802D2884200F24F
:100D0000CB804346091AA4B2B1FBF7F007FB1011E0
:100D100044EA01440EFB00FEA64508D91CEB04047E
:100D200000F1FF3102D2A64500F2BB800846A4EBD9
:100D30000E0440EA03409CE7C6F12007B34022FAC4
:100D400007FC4CEA030C20FA07F401FA06F31C43F3
:100D5000F9404FEA1C4900FA06F3B1FBF9F8200C00
:100D60001FFA8CFE09FB181140EA014108FB0EF046
:100D7000884202FA06F20BD91CEB010108F1FF3A96
:100D800080F08880884240F28580A8F102086144A2
:100D9000091AA4B2B1FBF9F009FB101144EA0141B0
:100DA00000FB0EFE8E4508D91CEB010100F1FF345B
:100DB0006CD28E456AD90238614440EA0840A0FBF3
:100DC0000294A1EB0E01A142C846A64656D353D0C9
:100DD0005DB1B3EB080261EB0E0101FA07F722FAED
:100DE00006F3F1401F43C5E9007100263146BDE816
:100DF000F087C2F12003D8400CFA02FC21FA03F379
:100E0000914001434FEA1C471FFA8CFEB3FBF7F0F9
:100E100007FB10360B0C43EA064300FB0EF69E421E
:100E200004FA02F408D91CEB030300F1FF382FD2B7
:100E30009E422DD9023863449B1B89B2B3FBF7F65F
:100E400007FB163341EA034106FB0EF38B4208D938
:100E50001CEB010106F1FF3816D28B4214D9023E79
:100E60006144C91A46EA004638E72E46284605E797
:100E70000646E3E61846F8E64B45A9D2B9EB020868
:100E800064EB0C0E0138A3E74646EAE7204694E7F8
:100E90004046D1E7D0467BE7023B614432E730462B
:100EA00009E76444023842E7704700BF80B483B06A
:100EB00000AF786039603B6818460C37BD465DF876
:100EC000047B704780B483B000AF78607B681846BD
:100ED0000C37BD465DF8047B704780B483B000AF2B
:100EE00078607B6818460C37BD465DF8047B704718
:100EF00080B483B000AF78607B6800229A607B6822
:100F000018460C37BD465DF8047B704780B582B04B
:100F100000AF78607B689B68002B05D07B689B687E
:100F200078687968032298477B6818460837BD4679
:100F300080BD000080B500AF01F000F800F03EF881
:100F400000F0B0F801F0B8FF114B00220121114868
:100F500002F066F90346104A1360104A082108207F
:100F600002F016FB03460E4A13600E4A00210E489B
:100F700002F067F803460D4A13600D4A00210D4840
:100F800002F05FF803460C4A136001F0B9FFFEE778
:100F900004A80008C514000828020020ECA70008D7
:100FA00024020020A4A70008F51300081C0200205A
:100FB000C8A700085D1400082002002080B594B086
:100FC00000AF07F1200330220021184606F0A0FEF2
:100FD00007F10C0300221A605A609A60DA601A6105
:100FE0000023BB602D4B1B6C2C4A43F080531364D1
:100FF0002A4B1B6C03F08053BB60BB6800237B60F3
:10100000274B1B68264A43F480431360244B1B681C
:1010100003F480437B607B6802233B620123FB6215
:1010200010233B630223BB630023FB6308233B6461
:10103000A8237B640223BB640423FB6407F1200321
:10104000184601F0A1FA0346002B14BF0123002328
:10105000DBB2002B01D000F043FA0F23FB60022328
:101060003B6100237B614FF4A053BB614FF480537D
:10107000FB6107F10C030521184601F0FDFC034656
:10108000002B14BF01230023DBB2002B01D000F0A2
:1010900027FA00BF5037BD4680BD00BF0038024070
:1010A0000070004080B58AB000AF07F11403002241
:1010B0001A605A609A60DA601A6100233B61414B02
:1010C0001B6B404A43F0800313633E4B1B6B03F0E2
:1010D00080033B613B690023FB603A4B1B6B394A41
:1010E00043F002031363374B1B6B03F00203FB60F7
:1010F000FB680023BB60334B1B6B324A43F0100389
:101100001363304B1B6B03F01003BB60BB68002301
:101110007B602C4B1B6B2B4A43F004031363294B5E
:101120001B6B03F004037B607B6800233B60254B53
:101130001B6B244A43F001031363224B1B6B03F028
:1011400001033B603B6800224FF680411E4801F0DE
:1011500001FA02237B610323BB610023FB6107F1DA
:1011600014031946194801F041F84FF680437B619A
:101170000123BB610023FB6100233B6207F11403E1
:101180001946114801F032F84FF434637B610023B3
:10119000BB610023FB6107F1140319460C4801F001
:1011A00025F84FF400437B610023BB610023FB6102
:1011B00007F114031946074801F018F800BF283753
:1011C000BD4680BD003802400010024000040240CD
:1011D000000802400000024080B582B000AF786095
:1011E0007A68144BA3FB02139B094FF47A7101FB3D
:1011F00003F3D31A002B14BF01230023DBB2002B0F
:1012000009D07B680B4AA2FB03239B097B607B68A8
:1012100001337B6005E07B68064AA2FB03239B0940
:101220007B607B68184601F09EFF00BF0837BD4613
:1012300080BD00BFD34D621080B584B000AF786030
:101240000B46FB707B68BB60FB783B73054B1868F3
:1012500007F108010023002202F00EFA00BF103748
:10126000BD4680BD2402002080B483B000AF78600A
:1012700039607B681A683B685B680F21013103FBAA
:1012800001F13B681B680B444F21D15400BF0C3760
:10129000BD465DF8047B704780B582B000AF7860D2
:1012A0007B681846FFF732FE7B6818460837BD4654
:1012B00080BD000080B58EB000AF3B1D20222021F4
:1012C000184606F025FD002387F82430284B1B68BC
:1012D000184605F0A7FC0346002B05D001F078FE68
:1012E0000346184605F00EFD3B1D1A4607F128037C
:1012F0001146184600F0FAF807F12803184605F0E1
:1013000079FD07F128031846FFF7C6FF194B5B6804
:101310000F22013203FB02F2164B1B6813443833D1
:101320003B442B2203F8342C134B1B684FF0FF3146
:10133000184602F0A5F80346002B0CBF012300233A
:10134000DBB2002B10D03B1D19460C4800F036FDD7
:10135000094B1B68184602F0DEF801F0F7FD034662
:1013600003F57A73064A136000BF3837BD4680BD67
:1013700080020020EC4B00202C0200200000002006
:101380008402002090B58BB000AF7860164B07F157
:1013900018040FCB84E80F00144B07F108040FCB9F
:1013A00084E80F007B689B0028333B4453F8102CE3
:1013B0000F4B1B689A4213D07B689B0028333B4439
:1013C00053F8202C0A4B1B689A4209D07B689B007B
:1013D00028333B4453F8103C054A1360FFF76AFF7B
:1013E00000BF2C37BD4690BD6CA700087CA7000845
:1013F0008002002080B582B000AF7860124A137876
:101400006FF341031370104A13786FF300031370E6
:101410000D4800F05EFD05F0EDFB01F0D9FD03463F
:10142000184605F06FFC094B03221A60084801F0CA
:10143000A1FF0346074A1360FFF73CFF064B1B68FA
:10144000184601F0ABFEF7E7000000208002002004
:1014500014A800082C0200208402002080B584B06B
:1014600000AF786005221349134800F000FB134BCE
:101470001B680521184601F04FFF114B186807F152
:1014800008014FF0FF33002202F056F90346002B0B
:101490000CBF01230023DBB2002BEED0BB68032B73
:1014A000EBD83B7B002BE8D0BB681846FFF76AFF00
:1014B000E3E700BF44A80008300200202802002013
:1014C0002402002080B582B000AF78600521034877
:1014D00000F005FB00BF0837BD4680BD300200208C
:1014E00080B400AF72B600BFFEE7000090B583B0D5
:1014F00000AF786039607B681846FFF7F9FC3B461F
:10150000184600F01DF80346002B0FD07C683B46C0
:10151000184600F020F803461946204600F026F849
:101520007B68054ADA607B68044A9A607B681846E3
:101530000C37BD4690BD00BF91150008BB150008D3
:1015400080B483B000AF7860012318460C37BD46E5
:101550005DF8047B704780B483B000AF78607B682F
:1015600018460C37BD465DF8047B704790B583B0D4
:1015700000AF786039603868FFF7EDFF0346224618
:101580001946786800F038F800BF0C37BD4690BDAA
:1015900090B583B000AF78603960786800F045F8A6
:1015A0000446386800F052F803461946204600F019
:1015B00058F800BF0C37BD4690BD90B585B000AF60
:1015C000F860B9601346FB71FB79012B09D1F8680B
:1015D00000F05DF80446B86800F027F80346236081
:1015E00005E0FB791A46B968F86800F05CF800235A
:1015F00018461437BD4690BD90B585B000AFF86071
:10160000B9603A71B868FFF7A6FF0446F868FFF7BB
:1016100059FC034619460420FFF748FC024623689C
:10162000136000BF1437BD4690BD80B584B000AFD5
:101630007860786800F062F8F860F86800F06AF89E
:10164000034600BF18461037BD4680BD80B483B046
:1016500000AF78607B6818460C37BD465DF8047BA8
:101660007047B0B582B000AF78603960786800F03C
:101670005CF804463868FFF7E9FF03461A4621463E
:10168000284600F05DF800BF0837BD46B0BD80B504
:1016900082B000AF78607868FFF714FC0346184604
:1016A0000837BD4680BDB0B584B000AFF860B96002
:1016B0001346FB71FB79032B16D0032B19DC012B8E
:1016C00002D0022B0AD014E0F868FFF7E0FF0446CE
:1016D000B868FFF7AAFF034623600AE02A46B96804
:1016E000F86800F043F804E02146F86800F057F885
:1016F00000BF002318461037BD46B0BD80B582B08C
:1017000000AF78607868FFF7E8FB034618460837B3
:10171000BD4680BD80B483B000AF78607B6818465A
:101720000C37BD465DF8047B704780B483B000AFD2
:1017300078607B6818460C37BD465DF8047B7047BF
:1017400090B585B000AF3873B9607A60B868FFF7BC
:10175000ECFF04467868FFF779FF034619462046F8
:10176000FFF782FD00BF1437BD4690BD90B585B030
:1017700000AFF860B9603A71B868FFF7BFFF044680
:10178000F868FFF79FFB034619460420FFF78EFB1E
:1017900002462368136000BF1437BD4690BD80B574
:1017A00082B000AF78603970786800F004F800BF4C
:1017B0000837BD4680BD80B582B000AF78607868DC
:1017C000FFF780FB034618460837BD4680BD000082
:1017D00080B582B000AF00237B60124B5B6C114A76
:1017E00043F4804353640F4B5B6C03F480437B6092
:1017F0007B6800233B600B4B1B6C0A4A43F0805311
:101800001364084B1B6C03F080533B603B68002261
:101810000F216FF0010000F0C0FC00BF0837BD468B
:1018200080BD00BF0038024080B400AFFEE780B446
:1018300000AFFEE780B400AFFEE780B400AFFEE784
:1018400080B400AFFEE780B400AF00BFBD465DF8D6
:10185000047B704780B500AF00F0C2FB03F0F0FEE0
:101860000346012B01D004F08FFE00BF80BD80B481
:1018700000AF01231846BD465DF8047B704780B574
:1018800082B000AF7860396006F0FAF9034616229C
:101890001A604FF0FF3318460837BD4680BD80B54B
:1018A00082B000AF78604FF0FF317868FFF7E7FF54
:1018B000FEE780B586B000AFF860B9607A600023BB
:1018C0007B610AE0AFF300800146BB685A1CBA6036
:1018D000CAB21A707B6901337B617A697B689A426C
:1018E000F0DB7B6818461837BD4680BD80B586B0F2
:1018F00000AFF860B9607A6000237B6109E0BB68E3
:101900005A1CBA601B781846AFF300807B6901331C
:101910007B617A697B689A42F1DB7B6818461837ED
:10192000BD4680BD80B483B000AF78604FF0FF3318
:1019300018460C37BD465DF8047B704780B483B011
:1019400000AF786039603B684FF400525A60002362
:1019500018460C37BD465DF8047B704780B483B0F1
:1019600000AF7860012318460C37BD465DF8047B54
:10197000704780B485B000AFF860B9607A6000232A
:1019800018461437BD465DF8047B704780B586B0B5
:1019900000AF7860144A154BD31A7B617B693B61B9
:1019A000134B1B68002B02D1114B124A1A60104BCB
:1019B0001A687B6813443A699A4207D206F060F9C4
:1019C00003460C221A604FF0FF3309E0084B1B68F6
:1019D000FB60074B1A687B681344054A1360FB6879
:1019E00018461837BD4680BD0000022000040000E4
:1019F00088020020084C002080B400AF064BD3F8CA
:101A00008830054A43F47003C2F8883000BFBD46F1
:101A10005DF8047B704700BF00ED00E0DFF834D0D4
:101A20000D480E490E4A002302E0D458C450043336
:101A3000C4188C42F9D30B4A0B4C002301E013600D
:101A40000432A242FBD3FFF7D7FF06F01FF9FFF7DE
:101A500071FA704700000220000000200002002000
:101A60006CAC000800020020084C0020FEE780B5A6
:101A700086B000AFF860B9607A6000237B6115E042
:101A80007B691B01FA681344184600F018F87B695B
:101A90001B01FA68D0187B69DB00BA68134408227E
:101AA000194606F027F97B6901337B617A697B6807
:101AB0009A42E5D300BF00BF1837BD4680BD80B451
:101AC00083B000AF78607B6800221A727B680322C3
:101AD000DA6000BF0C37BD465DF8047B704780B507
:101AE00084B000AF786039600023FB606AE0FB6877
:101AF0001B017A681344184600F06DF8034683F022
:101B00000103DBB2002B0ED0FB681B017A68134483
:101B1000DB680B2B15D8FB681B017A681344DA6865
:101B20000132DA600DE0FB681B017A681344DB6860
:101B3000032B06D9FB681B017A681344DA68013A63
:101B4000DA60FB681B017A681344DB68092B19D93A
:101B5000FB681B017A6813441B7A83F00103DBB234
:101B6000002B2CD0FB681B017A68134401221A72E7
:101B7000FB681B017A6813441B7A1946F868FFF763
:101B80005BFB1CE0FB681B017A681344DB68052BD8
:101B900015D8FB681B017A6813441B7A002B0ED002
:101BA000FB681B017A68134400221A72FB681B0150
:101BB0007A6813441B7A1946F868FFF73DFBFB6807
:101BC0000133FB60FA683B689A4290D300BF00BFC4
:101BD0001037BD4680BD80B582B000AF78607B68AD
:101BE0001A687B689B881946104600F09BFC0346E8
:101BF000012B0CBF01230023DBB218460837BD467A
:101C000080BD80B582B000AF78600B46FB707B680A
:101C100018687B689988FB78002B01D0012300E0CD
:101C200000231A4600F096FC00BF0837BD4680BD71
:101C300080B586B000AFF860B9601346FB80002322
:101C40007B617A69BB689A4216D27B69DB00FA68CD
:101C50001A44FB8803F00103002B14BF0123002367
:101C6000DBB219461046FFF7CCFFFB885B08FB8010
:101C70007B6901337B61E4E700BF1837BD4680BD57
:101C800080B582B000AF78600B46FB707B68043390
:101C900001211846FFF7B5FF7B68D869FB789BB236
:101CA00003F00F039BB21A460421FFF7C1FF012086
:101CB000FFF792FA7B68043300211846FFF7A1FF73
:101CC0000120FFF789FA00BF0837BD4680BD80B507
:101CD00082B000AF78600B46FB70FB781B09DBB26B
:101CE00019467868FFF7CCFFFB7819467868FFF74C
:101CF000C7FF00BF0837BD4680BD80B584B000AFC8
:101D0000F8600B467A60FB72FB68143300211846BA
:101D1000FFF777FFFB680C3300211846FFF771FFD0
:101D2000FB7A1946F868FFF7D2FF7B68002B02D0D8
:101D30007868FFF751FA00BF1037BD4680BD80B507
:101D400082B000AF78600B46FB707B6814330121D2
:101D50001846FFF756FF7B680C3300211846FFF743
:101D600050FFFB7819467868FFF7B1FF2D20FFF789
:101D700033FA00BF0837BD4680BD80B582B000AFE2
:101D800078600B46FB70FB781F2B13D8FB780F2B6A
:101D900006D9FB78103BFB70FB7843F04003FB70E7
:101DA000FB7863F07F03FB70FB782D22194678687F
:101DB000FFF7A3FF00BF0837BD4680BD80B582B0E6
:101DC00000AF786039603A680021786800F004F864
:101DD00000BF0837BD4680BD80B586B000AFF86053
:101DE0000B467A60FB72FB7A1946F868FFF7C5FF6D
:101DF0000023FB7511E0FB7D102B03D11021F86847
:101E0000FFF7BBFFFB7D7A6813441B781946F8681F
:101E1000FFF795FFFB7D0133FB75FB7D7A6813446B
:101E20001B78002B02D0FB7D1F2BE4D900BF183795
:101E3000BD4680BD80B582B000AF78604FF4C86207
:101E400001217868FFF759FF00BF0837BD4680BD04
:101E500080B582B000AF78604FF4C8620221786824
:101E6000FFF74BFF00BF0837BD4680BD80B584B08B
:101E700000AF78600C23FB737B681B7803F00103D1
:101E8000DBB2002B0ED0FB7B43F00203FB737B68BD
:101E90001B7803F00203DBB2002B03D0FB7B43F083
:101EA0000103FB73FB7B2D2219467868FFF725FFA2
:101EB00000BF1037BD4680BD80B582B000AF7860EE
:101EC0002D2206217868FFF718FF00BF0837BD46AE
:101ED00080BD80B584B000AF78607B68143300218A
:101EE0001846FFF78EFE7B680C3300211846FFF77B
:101EF00088FE2820FFF770F92023FB73FB7B43F05B
:101F00000803FB73FB7B2D2219467868FFF7F5FE6B
:101F1000FB7B2D2219467868FFF7EFFE7868FFF704
:101F2000A5FF7868FFF786FF7868FFF7C5FF786838
:101F3000FFF78EFF00BF1037BD4680BD80B500AFF4
:101F40000E4B1B680D4A43F4007313600B4B1B6868
:101F50000A4A43F480631360084B1B68074A43F442
:101F600080731360032000F00DF90F2000F008F8D3
:101F7000FFF72EFC0023184680BD00BF003C024046
:101F800080B582B000AF7860124B1A68124B1B7894
:101F900019464FF47A73B3FBF1F3B2FBF3F318462F
:101FA00000F017F90346002B01D001230EE07B68F7
:101FB0000F2B0AD8002279684FF0FF3000F0EDF8BF
:101FC000064A7B681360002300E0012318460837A7
:101FD000BD4680BD200000202800002024000020F5
:101FE00080B400AF064B1B781A46064B1B6813449F
:101FF000044A136000BFBD465DF8047B704700BF14
:10200000280000208C02002080B400AF034B1B6826
:102010001846BD465DF8047B704700BF8C02002067
:1020200080B485B000AF78607B6803F00703FB6085
:102030000C4BDB68BB60BA684FF6FF031340BB6014
:10204000FB681A02BB68134343F0BF6343F40033D9
:10205000BB60044ABB68D36000BF1437BD465DF85F
:10206000047B704700ED00E080B400AF044BDB68F8
:102070001B0A03F007031846BD465DF8047B704752
:1020800000ED00E080B483B000AF03463960FB711F
:1020900097F90730002B0ADB3B68DAB20C4997F955
:1020A00007301201D2B20B4483F800230AE03B68E8
:1020B000DAB20849FB7903F00F03043B1201D2B2F4
:1020C0000B441A7600BF0C37BD465DF8047B7047A1
:1020D00000E100E000ED00E080B489B000AFF860FE
:1020E000B9607A60FB6803F00703FB61FB69C3F129
:1020F0000703042B28BF0423BB61FB690433062BB1
:1021000002D9FB69033B00E000237B614FF0FF3203
:10211000BB6902FA03F3DA43BB681A407B699A4051
:102120004FF0FF317B6901FA03F3D9437B680B4021
:10213000134318462437BD465DF8047B7047000002
:1021400080B582B000AF78607B68013BB3F1807FDF
:1021500001D301230FE00A4A7B68013B53600F2142
:102160004FF0FF30FFF78EFF054B00229A60044BC3
:1021700007221A60002318460837BD4680BD00BFFD
:1021800010E000E080B582B000AF78607868FFF7BB
:1021900047FF00BF0837BD4680BD80B586B000AFA1
:1021A0000346B9607A60FB7300237B61FFF75CFF35
:1021B00078617A68B9687869FFF78EFF024697F907
:1021C0000F3011461846FFF75DFF00BF1837BD46B8
:1021D00080BD80B582B000AF78607868FFF7B0FF4F
:1021E000034618460837BD4680BD000080B489B05C
:1021F00000AF7860396000237B6100233B610023DE
:10220000BB610023FB616BE10122FB6902FA03F36E
:102210007B613B681B687A6913403B613A697B6963
:102220009A4240F05A813B685B6803F00303012B3C
:1022300005D03B685B6803F00303022B30D17B6859
:102240009B68BB61FB695B00032202FA03F3DB437B
:10225000BA691340BB613B68DA68FB695B0002FA4C
:1022600003F3BA691343BB617B68BA699A607B6800
:102270005B68BB610122FB6902FA03F3DB43BA69C5
:102280001340BB613B685B681B0903F00102FB69FB
:1022900002FA03F3BA691343BB617B68BA695A60F7
:1022A0003B685B6803F00303032B17D07B68DB6894
:1022B000BB61FB695B00032202FA03F3DB43BA69EB
:1022C0001340BB613B689A68FB695B0002FA03F349
:1022D000BA691343BB617B68BA69DA603B685B68C3
:1022E00003F00303022B23D1FB69DA087B68083271
:1022F00053F82230BB61FB6903F007039B000F22F8
:1023000002FA03F3DB43BA691340BB613B681A6905
:10231000FB6903F007039B0002FA03F3BA69134356
:10232000BB61FB69DA087B680832B96943F822109F
:102330007B681B68BB61FB695B00032202FA03F345
:10234000DB43BA691340BB613B685B6803F003027F
:10235000FB695B0002FA03F3BA691343BB617B6854
:10236000BA691A603B685B6803F44033002B00F0E5
:10237000B4800023FB60604B5B6C5F4A43F4804396
:1023800053645D4B5B6C03F48043FB60FB685B4A0A
:10239000FB699B08023352F82330BB61FB6903F0F1
:1023A00003039B000F2202FA03F3DB43BA691340D5
:1023B000BB617B68524A93422BD07B68514A93425F
:1023C00025D07B68504A93421FD07B684F4A934286
:1023D00019D07B684E4A934213D07B684D4A934292
:1023E0000DD07B684C4A934207D07B684B4A93429E
:1023F00001D107230EE008230CE006230AE00523A1
:1024000008E0042306E0032304E0022302E00123A2
:1024100000E00023FA6902F0030292009340BA69D7
:102420001343BB613549FB699B080233BA6941F824
:1024300023203B4B9B68BB613B69DB43BA6913407C
:10244000BB613B685B6803F48013002B03D0BA695F
:102450003B691343BB61324ABB699360304BDB6815
:10246000BB613B69DB43BA691340BB613B685B6896
:1024700003F40013002B03D0BA693B691343BB611B
:10248000274ABB69D360264B5B68BB613B69DB4372
:10249000BA691340BB613B685B6803F40033002BEF
:1024A00003D0BA693B691343BB611D4ABB695360E2
:1024B0001B4B1B68BB613B69DB43BA691340BB61C3
:1024C0003B685B6803F48033002B03D0BA693B6937
:1024D0001343BB61124ABB691360FB690133FB61A3
:1024E000FB690F2B7FF690AE00BF00BF2437BD46BF
:1024F0005DF8047B704700BF00380240003801409F
:10250000000002400004024000080240000C0240AB
:10251000001002400014024000180240001C02405B
:10252000003C014080B485B000AF78600B467B80F2
:102530007B681A697B881340002B02D00123FB7350
:1025400001E00023FB73FB7B18461437BD465DF8A2
:10255000047B704780B483B000AF78600B467B800B
:1025600013467B707B78002B03D07A887B689A6156
:1025700003E07B881A047B689A6100BF0C37BD4674
:102580005DF8047B7047000080B586B000AF7860CE
:102590007B68002B01D1012367E27B681B6803F095
:1025A0000103002B75D0884B9B6803F00C03042BB0
:1025B0000CD0854B9B6803F00C03082B12D1824B87
:1025C0005B6803F48003B3F5800F0BD17E4B1B686F
:1025D00003F40033002B5BD07B685B68002B57D182
:1025E000012342E27B685B68B3F5803F06D1764BFE
:1025F0001B68754A43F4803313601DE07B685B6899
:10260000B3F5A02F0CD1704B1B686F4A43F48023A5
:1026100013606D4B1B686C4A43F4803313600BE00E
:10262000694B1B68684A23F480331360664B1B6850
:10263000654A23F4802313607B685B68002B13D00A
:10264000FFF7E2FC386108E0FFF7DEFC02463B6979
:10265000D31A642B01D9032307E25B4B1B6803F4F5
:102660000033002BF0D014E0FFF7CEFC386108E017
:10267000FFF7CAFC02463B69D31A642B01D9032336
:10268000F3E1514B1B6803F40033002BF0D100E061
:1026900000BF7B681B6803F00203002B63D04A4B2A
:1026A0009B6803F00C03002B0BD0474B9B6803F097
:1026B0000C03082B1CD1444B5B6803F48003002BF4
:1026C00016D1414B1B6803F00203002B05D07B6839
:1026D000DB68012B01D00123C7E13B4B1B6823F0D2
:1026E000F8027B681B69DB00374913430B603AE053
:1026F0007B68DB68002B20D0344B01221A60FFF787
:1027000083FC386108E0FFF77FFC02463B69D31A7F
:10271000022B01D90323A8E12B4B1B6803F0020312
:10272000002BF0D0284B1B6823F0F8027B681B6954
:10273000DB00254913430B6015E0244B00221A608F
:10274000FFF762FC386108E0FFF75EFC02463B6978
:10275000D31A022B01D9032387E11B4B1B6803F01B
:102760000203002BF0D17B681B6803F00803002BE9
:1027700036D07B685B69002B16D0154B01221A609E
:10278000FFF742FC386108E0FFF73EFC02463B6978
:10279000D31A022B01D9032367E10B4B5B6F03F0C4
:1027A0000203002BF0D01BE0094B00221A60FFF758
:1027B0002BFC38610EE0FFF727FC02463B69D31A79
:1027C000022B07D9032350E10038024000004742A2
:1027D000800E4742884B5B6F03F00203002BEAD167
:1027E0007B681B6803F00403002B00F09780002334
:1027F000FB75814B1B6C03F08053002B0FD1002322
:10280000BB607D4B1B6C7C4A43F0805313647A4B56
:102810001B6C03F08053BB60BB680123FB75774BD7
:102820001B6803F48073002B18D1744B1B68734A28
:1028300043F480731360FFF7E7FB386108E0FFF7AC
:10284000E3FB02463B69D31A022B01D903230CE1B7
:102850006A4B1B6803F48073002BF0D07B689B6885
:10286000012B06D1644B1B6F634A43F001031367CE
:102870001CE07B689B68052B0CD15F4B1B6F5E4A8D
:1028800043F0040313675C4B1B6F5B4A43F0010387
:1028900013670BE0584B1B6F574A23F00103136774
:1028A000554B1B6F544A23F0040313677B689B68E6
:1028B000002B15D0FFF7A8FB38610AE0FFF7A4FB57
:1028C00002463B69D31A41F28832934201D903236D
:1028D000CBE0494B1B6F03F00203002BEED014E05A
:1028E000FFF792FB38610AE0FFF78EFB02463B6977
:1028F000D31A41F28832934201D90323B5E03E4B0B
:102900001B6F03F00203002BEED1FB7D012B05D1E1
:10291000394B1B6C384A23F0805313647B689B69E6
:10292000002B00F0A180344B9B6803F00C03082BB4
:102930005CD07B689B69022B41D1314B00221A602D
:10294000FFF762FB386108E0FFF75EFB02463B6978
:10295000D31A022B01D9032387E0274B1B6803F00E
:102960000073002BF0D17B68DA697B681B6A1A431D
:102970007B685B6A9B011A437B689B6A5B08013B2F
:102980001B041A437B68DB6A1B061B4913434B601D
:102990001B4B01221A60FFF737FB386108E0FFF795
:1029A00033FB02463B69D31A022B01D903235CE0B7
:1029B000114B1B6803F00073002BF0D054E0104B58
:1029C00000221A60FFF720FB386108E0FFF71CFBCC
:1029D00002463B69D31A022B01D9032345E0064B7B
:1029E0001B6803F00073002BF0D13DE07B689B690E
:1029F000012B07D1012338E000380240007000406D
:102A0000600047421B4B5B68FB607B689B69012B46
:102A100028D0FB6803F480027B68DB699A4221D1ED
:102A2000FB6803F03F027B681B6A9A421AD1FA687E
:102A300047F6C07313407A68526A9201934211D1EB
:102A4000FB6803F440327B689B6A5B08013B1B0414
:102A50009A4207D1FB6803F070627B68DB6A1B0651
:102A60009A4201D0012300E0002318461837BD46E2
:102A700080BD00BF0038024080B584B000AF7860F0
:102A800039607B68002B01D10123CCE0684B1B68C7
:102A900003F007033A689A420CD9654B3A68D2B200
:102AA0001A70634B1B6803F007033A689A4201D01F
:102AB0000123B8E07B681B6803F00203002B20D0E1
:102AC0007B681B6803F00403002B05D0594B9B68FF
:102AD000584A43F4E05393607B681B6803F0080393
:102AE000002B05D0534B9B68524A43F460439360DC
:102AF000504B9B6823F0F0027B689B684D49134361
:102B00008B607B681B6803F00103002B44D07B685B
:102B10005B68012B07D1474B1B6803F40033002B84
:102B200019D101237FE07B685B68022B03D07B68AF
:102B30005B68032B07D13F4B1B6803F00073002B2E
:102B400009D101236FE03B4B1B6803F00203002B0C
:102B500001D1012367E0374B9B6823F003027B68B8
:102B60005B68344913438B60FFF74EFAF8600AE064
:102B7000FFF74AFA0246FB68D31A41F288329342C1
:102B800001D903234FE02B4B9B6803F00C027B68B9
:102B90005B689B009A42EBD1254B1B6803F007034F
:102BA0003A689A420CD2224B3A68D2B21A70204B41
:102BB0001B6803F007033A689A4201D0012332E010
:102BC0007B681B6803F00403002B08D0194B9B683B
:102BD00023F4E0527B68DB68164913438B607B6803
:102BE0001B6803F00803002B09D0124B9B6823F4E9
:102BF00060427B681B69DB000E4913438B6000F069
:102C000021F802460B4B9B681B0903F00F030A498E
:102C1000CB5C22FA03F3094A1360094B1B68184680
:102C2000FFF7AEF9002318461037BD4680BD00BF40
:102C3000003C0240003802406CA800082000002040
:102C4000240000202DE9B04F94B000AF00237B6436
:102C50000023FB6400233B640023BB64794B9B6827
:102C600003F00C03082B0DD0082B00F2E180002BA1
:102C700002D0042B03D0DBE0734BBB64DBE0734B6F
:102C8000BB64D8E06F4B5B6803F03F037B646D4B24
:102C90005B6803F48003002B63D06A4B5B689B097D
:102CA0000022BB63FA63BB6BC3F308033B630023DF
:102CB0007B63D7E90C4522462B464FF000004FF0CE
:102CC0000001590141EAD261500102460B462146FA
:102CD000511A3961294663EB01037B614FF0000211
:102CE0004FF00003D7E904AB59468B01514643EA44
:102CF000916351468A015146B2EB0108594663EB94
:102D000001094FF000024FF000034FEAC90343EA04
:102D100058734FEAC80290469946234618EB0303BE
:102D2000BB602B4649EB0303FB604FF000024FF002
:102D30000003D7E9024529464B02214643EAD15315
:102D400021464A02104619467B6C0022BB62FA6299
:102D5000D7E90A23FDF728FF02460B461346FB641A
:102D600058E0384B5B689B09002218461146C0F3B7
:102D700008033B6200237B62D7E9088942464B4641
:102D80004FF000004FF00001590141EAD2615001BB
:102D900002460B464146B2EB010A494663EB010B82
:102DA0004FF000024FF000034FEA8B1343EA9A639F
:102DB0004FEA8A12B2EB0A0463EB0B054FF00002F4
:102DC0004FF00003EB0043EA5473E20014461D4643
:102DD0004346E3183B604B4645EB03037B604FF0F3
:102DE00000024FF00003D7E9004529468B02214637
:102DF00043EA915321468A02104619467B6C002211
:102E0000BB61FA61D7E90623FDF7CEFE02460B4609
:102E10001346FB640B4B5B681B0C03F0030301338D
:102E20005B003B64FA6C3B6CB2FBF3F3BB6402E007
:102E3000054BBB6400BFBB6C18465037BD46BDE8B0
:102E4000B08F00BF003802400024F40000127A0066
:102E500080B483B000AF03463960FB7197F9073047
:102E6000002B0ADB3B68DAB20C4997F907301201F4
:102E7000D2B20B4483F800230AE03B68DAB2084977
:102E8000FB7903F00F03043B1201D2B20B441A7614
:102E900000BF0C37BD465DF8047B704700E100E0E1
:102EA00000ED00E080B500AF00216FF00400FFF7F7
:102EB000CFFF00BF80BD000080B483B000AFEFF350
:102EC00005833B603B68002B03D06FF005037B60FC
:102ED0000CE00A4B1B68002B05D1084B01221A603D
:102EE00000237B6002E04FF0FF337B607B68184675
:102EF0000C37BD465DF8047B704700BF9002002090
:102F000080B582B000AFEFF305833B603B68002BD8
:102F100003D06FF005037B6010E00B4B1B68012BA7
:102F200009D1FFF7BFFF084B02221A6001F01EFF14
:102F300000237B6002E04FF0FF337B607B68184624
:102F40000837BD4680BD00BF9002002080B582B02A
:102F500000AFEFF305833B603B68002B03D002F02A
:102F600027F8786002E002F013F878607B68184672
:102F70000837BD4680BD000080B483B000AF064B6B
:102F80005B687B60044B9B687A68D31A18460C37E1
:102F9000BD465DF8047B704710E000E080B400AFF0
:102FA000044B1B681B0C03F001031846BD465DF87B
:102FB000047B704710E000E080B400AF034B5B6817
:102FC00001331846BD465DF8047B704710E000E011
:102FD00080B586B000AFEFF31083BB60BB68002BF9
:102FE00005D1EFF311837B607B68002B01D00123B7
:102FF00000E00023FB6072B600BF01F0C9FF7861FA
:10300000FFF7BAFF3861FFF7C9FF0346002B05D071
:10301000FFF7B2FF38617B6901337B61FFF7CCFFBB
:1030200002467B6902FB03F33A6913443B61FB6888
:10303000002B01D162B600BF3B6918461837BD4668
:1030400080BD80B58EB004AFF860B9607A600023AF
:103050003B61EFF305837B617B69002B7ED1FB68CD
:10306000002B7BD080233B621823FB6100237B6213
:103070004FF0FF33BB617B68002B45D07B681B683A
:10308000002B02D07B681B687B627B689B69002BEE
:1030900002D07B689B69FB61FB69002B08D0FB6950
:1030A000382B05D87B685B6803F00103002B01D047
:1030B000002354E07B685B69002B03D07B685B696D
:1030C0009B083B627B689B68002B0ED07B68DB68AB
:1030D0005B2B0AD97B681B69002B06D07B685B6978
:1030E000002B02D00123BB6110E07B689B68002BA2
:1030F0000CD17B68DB68002B08D17B681B69002B37
:1031000004D10023BB6101E00023BB61BB69012B3B
:1031100010D17B681B697A68926802920193FB69FF
:103120000093BB683A6A796AF86801F0CBFB034602
:103130003B6113E0BB69002B10D13B6A9AB207F1E7
:1031400010030193FB690093BB68796AF86801F08A
:1031500016FC0346012B01D000233B613B69184656
:103160002837BD4680BD80B584B000AF7860EFF3EE
:103170000583BB60BB68002B03D06FF00503FB60C9
:1031800007E00023FB607B68002B02D0786801F029
:10319000B9FDFB6818461037BD4680BD80B586B0C6
:1031A00000AF7860EFF30583FB60FB68002B03D072
:1031B0006FF005037B6119E000237B6101F0E8FEFD
:1031C0000346BB60BB687A68D31A3B613B69002B3E
:1031D00009D03B69002B06DB07F108033969184663
:1031E00001F012FD02E06FF003037B617B6918467A
:1031F0001837BD4680BD80B584B000AF7860786870
:1032000002F0E4FFF860FB68002B05D0FB681B6848
:10321000FA6852681046984700BF1037BD4680BD17
:1032200080B58CB002AFF8607A603B600B46FB72F1
:1032300000233B62EFF305833B613B69002B63D1C5
:10324000FB68002B60D0082003F02EFA78617B69C0
:10325000002B59D07B69FA681A607B697A685A60DA
:10326000FB7A002B02D10023FB6101E00123FB610B
:103270004FF0FF33BB6100237B623B68002B1CD007
:103280003B681B68002B02D03B681B687B623B6875
:103290009B68002B06D03B68DB682B2B02D90123EF
:1032A000BB610CE03B689B68002B08D13B68DB6886
:1032B000002B04D10023BB6101E00023BB61BB698B
:1032C000012B0CD13B689B680193124B00937B69E7
:1032D000FA690121786A02F0FAFB38620BE0BB69F7
:1032E000002B08D10B4B00937B69FA690121786AA6
:1032F00002F0CCFB38623B6A002B05D17B69002BC6
:1033000002D0786903F09CFA3B6A18462837BD461C
:1033100080BD00BFF731000880B588B002AF78608B
:1033200039607B683B61EFF30583FB60FB68002B32
:1033300003D06FF005037B6117E03B69002B03D1DD
:103340006FF003037B6110E00023009300233A68D1
:103350000421386902F034FC0346012B02D100231A
:103360007B6102E06FF002037B617B6918461837CE
:10337000BD4680BD80B588B000AF78600023FB619A
:10338000EFF30583BB60BB68002B74D17B68002B17
:1033900003D07B685B68BB6101E00023BB61BB6954
:1033A00003F00103002B02D001237B6101E0002325
:1033B0007B61BB6903F00803002B5CD14FF0FF3346
:1033C0003B617B68002B15D07B689B68002B06D087
:1033D0007B68DB684F2B02D901233B610CE07B68E3
:1033E0009B68002B08D17B68DB68002B04D100238D
:1033F0003B6101E000233B613B69012B12D17B69FA
:10340000002B07D07B689B681946042000F049FC1C
:10341000F86116E07B689B681946012000F041FCCA
:10342000F8610EE03B69002B0BD17B69002B04D0C7
:10343000042000F01EFCF86103E0012000F019FCFC
:10344000F861FB69002B0CD07B68002B03D07B68F4
:103450001B68FB6001E00023FB60F968F86901F07C
:10346000D3F9FB69002B06D07B69002B03D0FB69E5
:1034700043F00103FB61FB6918462037BD4680BD60
:1034800080B586B000AF786039607B6823F00103B7
:103490003B617B6803F00103FB6000237B61EFF37A
:1034A0000583BB60BB68002B03D06FF005037B6115
:1034B0002CE03B69002B03D16FF003037B6125E017
:1034C000FB68002B11D03968386900F039FC0346DD
:1034D000012B1BD03B68002B03D06FF001037B61F5
:1034E00014E06FF002037B6110E03968386900F086
:1034F000D7FE0346012B09D03B68002B03D06FF0A9
:1035000001037B6102E06FF002037B617B69184677
:103510001837BD4680BD80B586B000AF78607B6847
:1035200023F001033B617B6803F00103FB60002390
:103530007B61EFF30583BB60BB68002B03D06FF0AA
:1035400005037B611FE03B69002B03D16FF0030390
:103550007B6118E0FB68002B09D0386900F0BCFBE8
:103560000346012B0FD06FF002037B610BE00023B9
:1035700000220021386900F019FC0346012B02D01B
:103580006FF002037B617B6918461837BD4680BD2A
:1035900080B58AB002AFF860B9607A600023FB6141
:1035A000EFF305833B613B69002B5FD1FB68002B88
:1035B0005CD0BB68002B59D04FF0FF33BB617B68F8
:1035C000002B29D07B689B68002B12D07B68DB68BE
:1035D0004F2B0ED97B681B69002B0AD07B685A6978
:1035E000FB68B96801FB03F39A4202D30123BB6174
:1035F00014E07B689B68002B10D17B68DB68002B94
:103600000CD17B681B69002B08D17B685B69002BA0
:1036100004D10023BB6101E00023BB61BB69012B26
:103620000BD17B681A697B689B6800210091B9689F
:10363000F86800F02FFAF86108E0BB69002B05D1AB
:103640000022B968F86800F09DFAF861FB69002B68
:103650000CD07B68002B03D07B681B687B6101E08A
:1036600000237B617969F86901F0CEF8FB6918469F
:103670002037BD4680BD000080B588B000AFF8603F
:10368000B9603B601346FB71FB68BB610023FB61C3
:10369000EFF305837B617B69002B28D0BB69002B8E
:1036A00005D0BB68002B02D03B68002B03D06FF025
:1036B0000303FB6138E000233B6107F110020023A4
:1036C000B968B86900F070FC0346012B03D06FF0B5
:1036D0000203FB6128E03B69002B25D0154B4FF01E
:1036E00080521A60BFF34F8FBFF36F8F1CE0BB692E
:1036F000002B02D0BB68002B03D16FF00303FB61EA
:1037000012E000233A68B968B86900F04FFB03463D
:10371000012B09D03B68002B03D06FF00103FB6144
:1037200002E06FF00203FB61FB6918462037BD46DB
:1037300080BD00BF04ED00E080B588B000AFF86048
:10374000B9607A603B60FB68BB610023FB61EFF30B
:1037500005837B617B69002B28D0BB69002B05D0DA
:10376000BB68002B02D03B68002B03D06FF0030333
:10377000FB6137E000233B6107F110031A46B9688B
:10378000B86900F099FE0346012B03D06FF00203E5
:10379000FB6127E03B69002B24D0154B4FF0805292
:1037A0001A60BFF34F8FBFF36F8F1BE0BB69002B15
:1037B00002D0BB68002B03D16FF00303FB6111E063
:1037C0003A68B968B86900F08BFC0346012B09D050
:1037D0003B68002B03D06FF00103FB6102E06FF048
:1037E0000203FB61FB6918462037BD4680BD00BF60
:1037F00004ED00E080B485B000AFF860B9607A6095
:10380000FB68074A1A60BB68064A1A607B68802218
:103810001A6000BF1437BD465DF8047B704700BFD7
:1038200094020020F002002080B485B000AFF86060
:10383000B9607A60FB68074A1A60BB68064A1A607A
:103840007B684FF480721A6000BF1437BD465DF884
:10385000047B7047F00400204C05002080B483B046
:1038600000AF78607B6803F108027B685A607B6870
:103870004FF0FF329A607B6803F108027B68DA60E0
:103880007B6803F108027B681A617B6800221A607A
:1038900000BF0C37BD465DF8047B704780B483B031
:1038A00000AF78607B6800221A6100BF0C37BD460C
:1038B0005DF8047B704780B485B000AF78603960F4
:1038C0007B685B68FB603B68FA685A60FB689A68D3
:1038D0003B689A60FB689B683A685A60FB683A6884
:1038E0009A603B687A681A617B681B685A1C7B681F
:1038F0001A6000BF1437BD465DF8047B704780B482
:1039000085B000AF786039603B681B68BB60BB68FE
:10391000B3F1FF3F03D17B681B69FB600CE07B6860
:103920000833FB6002E0FB685B68FB60FB685B6878
:103930001B68BA689A42F6D2FB685A683B685A60BC
:103940003B685B683A689A603B68FA689A60FB6813
:103950003A685A603B687A681A617B681B685A1C2F
:103960007B681A6000BF1437BD465DF8047B704762
:1039700080B485B000AF78607B681B69FB607B68B2
:103980005B687A6892689A607B689B687A6852681C
:103990005A60FB685B687A689A4203D17B689A68D0
:1039A000FB685A607B6800221A61FB681B685A1E1C
:1039B000FB681A60FB681B6818461437BD465DF843
:1039C000047B704780B584B000AF786039607B6855
:1039D000FB60FB68002B0AD14FF0500383F3118882
:1039E000BFF36F8FBFF34F8FBB6000BFFEE702F0E6
:1039F00039FDFB681A68FB68DB6BF968096C01FB31
:103A000003F31A44FB689A60FB6800229A63FB6820
:103A10001A68FB685A60FB681A68FB68DB6B013B3D
:103A2000F968096C01FB03F31A44FB68DA60FB6870
:103A3000FF2283F84420FB68FF2283F845203B687F
:103A4000002B14D1FB681B69002B1AD0FB681033C4
:103A5000184601F027FC0346002B12D00C4B4FF008
:103A600080521A60BFF34F8FBFF36F8F09E0FB687E
:103A700010331846FFF7F2FEFB6824331846FFF7B1
:103A8000EDFE02F01FFD012318461037BD4680BD34
:103A900004ED00E080B58EB002AFF860B9607A60E6
:103AA0003B60FB68002B0AD14FF0500383F3118871
:103AB000BFF36F8FBFF34F8FBB6200BFFEE73B6862
:103AC000002B0AD14FF0500383F31188BFF36F8F9F
:103AD000BFF34F8F7B6200BFFEE77B68002B02D0F5
:103AE000BB68002B01D0012300E00023002B0AD18A
:103AF0004FF0500383F31188BFF36F8FBFF34F8FE5
:103B00003B6200BFFEE77B68002B02D1BB68002B45
:103B100001D1012300E00023002B0AD14FF0500314
:103B200083F31188BFF36F8FBFF34F8FFB6100BF2B
:103B3000FEE750237B617B69502B0AD04FF0500386
:103B400083F31188BFF36F8FBFF34F8FBB6100BF4B
:103B5000FEE77B693B68FB62FB6A002B0DD0FB6ACA
:103B6000012283F8462097F83820FB6A0093134619
:103B70007A68B968F86800F03FF8FB6A1846303791
:103B8000BD4680BD80B58AB002AFF860B96013460B
:103B9000FB71FB68002B0AD14FF0500383F31188AF
:103BA000BFF36F8FBFF34F8F3B6100BFFEE7FB6832
:103BB000BA6802FB03F3FB61FB695033184602F05D
:103BC00073FDB861BB69002B11D0BB697B617B6958
:103BD00050337B61BB69002283F84620FA79BB69C8
:103BE000009313467A69B968F86800F005F8BB6974
:103BF00018462037BD4680BD80B584B000AFF86060
:103C0000B9607A60FB70BB68002B03D1BB69BA69ED
:103C10001A6002E0BB697A681A60BB69FA68DA6305
:103C2000BB69BA681A640121B869FFF7CBFEBB69AA
:103C3000FA7883F84C2000BF1037BD4680BD80B5B0
:103C400082B000AF78607B68002B0ED07B680022CA
:103C50009A607B6800221A607B680022DA60002389
:103C600000220021786800F0A1F800BF0837BD46A7
:103C700080BD80B586B000AF0346FB7101237B6138
:103C800000233B61FB791A4639697869FFF77AFFAF
:103C9000F860F868FFF7D3FFFB6818461837BD4691
:103CA00080BD80B588B002AF03463960FB71012347
:103CB0007B6100233B61FB7900933B6800223969FB
:103CC0007869FFF7E7FEF860F868FFF7B8FFFB6870
:103CD00018461837BD4680BD90B587B000AF7860F4
:103CE0007B683B613B69002B0AD14FF0500383F3A3
:103CF0001188BFF36F8FBFF34F8FFB6000BFFEE7EC
:103D00003B699C6801F08CFC03469C4211D13B69E5
:103D1000DB685A1E3B69DA603B69DB68002B05D122
:103D2000002300220021386900F040F801237B6164
:103D300001E000237B617B6918461C37BD4690BDBE
:103D400090B587B000AF786039607B683B613B69B4
:103D5000002B0AD14FF0500383F31188BFF36F8F0C
:103D6000BFF34F8FFB6000BFFEE73B699C6801F02B
:103D700057FC03469C4207D13B69DB685A1C3B69F0
:103D8000DA6001237B610CE03968386900F088FA59
:103D900078617B69002B04D03B69DB685A1C3B6966
:103DA000DA607B6918461C37BD4690BD80B58EB081
:103DB00000AFF860B9607A603B6000237B63FB680A
:103DC0003B633B6B002B0AD14FF0500383F3118808
:103DD000BFF36F8FBFF34F8FBB6200BFFEE7BB68BF
:103DE000002B03D13B6B1B6C002B01D1012300E0A6
:103DF0000023002B0AD14FF0500383F31188BFF347
:103E00006F8FBFF34F8F7B6200BFFEE73B68022BD3
:103E100003D13B6BDB6B012B01D1012300E00023BD
:103E2000002B0AD14FF0500383F31188BFF36F8F3B
:103E3000BFF34F8F3B6200BFFEE701F001FC03467A
:103E4000002B02D17B68002B01D1012300E000236D
:103E5000002B0AD14FF0500383F31188BFF36F8F0B
:103E6000BFF34F8FFB6100BFFEE702F0FBFA3B6B35
:103E70009A6B3B6BDB6B9A4202D33B68022B29D1D6
:103E80003A68B968386B00F0AFFBF8623B6B5B6A6D
:103E9000002B10D03B6B2433184601F003FA034685
:103EA000002B13D03F4B4FF080521A60BFF34F8F5F
:103EB000BFF36F8F0AE0FB6A002B07D0394B4FF03E
:103EC00080521A60BFF34F8FBFF36F8F02F0FAFA80
:103ED000012363E07B68002B03D102F0F3FA002397
:103EE0005CE07B6B002B06D107F11403184601F050
:103EF0003DFA01237B6302F0E5FA00F09DFF02F03A
:103F0000B1FA3B6B93F844305BB2B3F1FF3F03D19E
:103F10003B6B002283F844203B6B93F845305BB247
:103F2000B3F1FF3F03D13B6B002283F8452002F041
:103F3000C9FA3A1D07F114031146184601F02CFA8C
:103F40000346002B24D1386B00F046FC0346002BBF
:103F500018D03B6B10337A681146184601F052F9BD
:103F6000386B00F0D1FB00F075FF0346002B7FF4A7
:103F70007CAF0C4B4FF080521A60BFF34F8FBFF3F2
:103F80006F8F72E7386B00F0BFFB00F063FF6CE7E8
:103F9000386B00F0B9FB00F05DFF0023184638379E
:103FA000BD4680BD04ED00E080B590B000AFF86084
:103FB000B9607A603B60FB68BB63BB6B002B0AD1C6
:103FC0004FF0500383F31188BFF36F8FBFF34F8F10
:103FD000BB6200BFFEE7BB68002B03D1BB6B1B6C51
:103FE000002B01D1012300E00023002B0AD14FF068
:103FF000500383F31188BFF36F8FBFF34F8F7B6242
:1040000000BFFEE73B68022B03D1BB6BDB6B012BD0
:1040100001D1012300E00023002B0AD14FF050030F
:1040200083F31188BFF36F8FBFF34F8F3B6200BFE5
:10403000FEE702F0F9FAEFF311824FF0500383F339
:104040001188BFF36F8FBFF34F8FFA61BB61FB69BC
:104050007B63BB6B9A6BBB6BDB6B9A4202D33B6897
:10406000022B2FD1BB6B93F8453087F83330BB6BF5
:104070009B6BFB623A68B968B86B00F0B5FA97F9C8
:104080003330B3F1FF3F12D1BB6B5B6A002B16D00C
:10409000BB6B2433184601F005F90346002B0ED004
:1040A0007B68002B0BD07B6801221A6007E097F831
:1040B00033300133DBB25AB2BB6B83F845200123A6
:1040C000FB6301E00023FB637B6B7B617B6983F314
:1040D000118800BFFB6B18464037BD4680BD00000D
:1040E00080B58CB000AFF860B9607A600023FB62E5
:1040F000FB68BB62BB6A002B0AD14FF0500383F30D
:104100001188BFF36F8FBFF34F8F3B6200BFFEE795
:10411000BB68002B03D1BB6A1B6C002B01D10123B0
:1041200000E00023002B0AD14FF0500383F31188E5
:10413000BFF36F8FBFF34F8FFB6100BFFEE701F04E
:104140007FFA0346002B02D17B68002B01D10123AB
:1041500000E00023002B0AD14FF0500383F31188B5
:10416000BFF36F8FBFF34F8FBB6100BFFEE702F05D
:1041700079F9BB6A9B6B7B627B6A002B1FD0B968A5
:10418000B86A00F09BFA7B6A5A1EBB6A9A63BB6AE4
:104190001B69002B0FD0BB6A1033184601F082F860
:1041A0000346002B07D03D4B4FF080521A60BFF3FF
:1041B0004F8FBFF36F8F02F085F9012369E07B68B1
:1041C000002B03D102F07EF9002362E0FB6A002B92
:1041D00006D107F11003184601F0C8F80123FB626D
:1041E00002F070F900F028FE02F03CF9BB6A93F887
:1041F00044305BB2B3F1FF3F03D1BB6A002283F8C6
:104200004420BB6A93F845305BB2B3F1FF3F03D162
:10421000BB6A002283F8452002F054F93A1D07F1E9
:1042200010031146184601F0B7F80346002B23D1BE
:10423000B86A00F0BBFA0346002B17D0BB6A2433E0
:104240007A681146184600F0DDFFB86A00F05CFAA3
:1042500000F000FE0346002B89D1104B4FF0805236
:104260001A60BFF34F8FBFF36F8F80E7B86A00F01B
:104270004BFA00F0EFFD7AE7B86A00F045FA00F07B
:10428000E9FDB86A00F092FA0346002B3FF46FAFE5
:10429000002318463037BD4680BD00BF04ED00E066
:1042A00080B58EB000AF7860396000237B637B6897
:1042B000FB6200233B63FB6A002B0AD14FF05003E3
:1042C00083F31188BFF36F8FBFF34F8F3B6200BF43
:1042D000FEE7FB6A1B6C002B0AD04FF0500383F300
:1042E0001188BFF36F8FBFF34F8FFB6100BFFEE7F5
:1042F00001F0A6F90346002B02D13B68002B01D147
:10430000012300E00023002B0AD14FF0500383F378
:104310001188BFF36F8FBFF34F8FBB6100BFFEE704
:1043200002F0A0F8FB6A9B6BBB62BB6A002B24D037
:10433000BB6A5A1EFB6A9A63FB6A1B68002B04D196
:1043400001F0F4FA0246FB6A9A60FB6A1B69002BD3
:104350000FD0FB6A1033184600F0A4FF0346002B71
:1043600007D0544B4FF080521A60BFF34F8FBFF30A
:104370006F8F02F0A7F8012397E03B68002B11D163
:104380003B6B002B0AD04FF0500383F31188BFF32F
:104390006F8FBFF34F8F7B6100BFFEE702F092F893
:1043A000002382E07B6B002B06D107F10C0318463B
:1043B00000F0DCFF01237B6302F084F800F03CFD99
:1043C00002F050F8FB6A93F844305BB2B3F1FF3F60
:1043D00003D1FB6A002283F84420FB6A93F845303E
:1043E0005BB2B3F1FF3F03D1FB6A002283F84520A3
:1043F00002F068F83A4607F10C031146184600F03F
:10440000CBFF0346002B32D1F86A00F0CFF9034608
:10441000002B26D0FB6A1B68002B09D102F022F882
:10442000FB6A9B68184601F029F9386302F04AF8E4
:10443000FB6A24333A681146184600F0E3FEF86A36
:1044400000F062F900F006FD0346002B7FF468AF30
:10445000184B4FF080521A60BFF34F8FBFF36F8F2E
:104460005EE7F86A00F050F900F0F4FC58E7F86AEB
:1044700000F04AF900F0EEFCF86A00F097F9034604
:10448000002B3FF44DAF3B6B002B0DD001F0EAFF4A
:10449000F86A00F091F87862FB6A9B68796A1846BE
:1044A00001F0C2F902F00EF8002318463837BD4675
:1044B00080BD00BF04ED00E080B58EB000AFF860B5
:1044C000B9607A60FB683B633B6B002B0AD14FF00D
:1044D000500383F31188BFF36F8FBFF34F8F3B629D
:1044E00000BFFEE7BB68002B03D13B6B1B6C002BAE
:1044F00001D1012300E00023002B0AD14FF050032B
:1045000083F31188BFF36F8FBFF34F8FFB6100BF41
:10451000FEE702F089F8EFF311824FF0500383F3C6
:104520001188BFF36F8FBFF34F8FBA617B61BB6997
:10453000FB623B6B9B6BBB62BB6A002B2FD03B6B60
:1045400093F8443087F82730B968386B00F0B6F834
:10455000BB6A5A1E3B6B9A6397F92730B3F1FF3F52
:1045600012D13B6B1B69002B16D03B6B10331846E6
:1045700000F098FE0346002B0ED07B68002B0BD07A
:104580007B6801221A6007E097F827300133DBB21D
:104590005AB23B6B83F8442001237B6301E0002384
:1045A0007B63FB6A3B613B6983F3118800BF7B6BD4
:1045B00018463837BD4680BD80B485B000AF7860FE
:1045C0007B685B6A002B06D07B681B6B1B68C3F1A2
:1045D0003803FB6001E00023FB60FB6818461437DA
:1045E000BD465DF8047B704780B586B000AFF860CB
:1045F000B9607A6000237B61FB689B6B3B61FB6861
:104600001B6C002B0DD1FB681B68002B4DD1FB6888
:104610009B68184601F09AF87861FB6800229A605E
:1046200043E07B68002B19D1FB685868FB681B6C62
:104630001A46B96803F05EFBFB685A68FB681B6C9E
:104640001A44FB685A60FB685A68FB689B689A4288
:104650002BD3FB681A68FB685A6026E0FB68D868B1
:10466000FB681B6C1A46B96803F044FBFB68DA6808
:10467000FB681B6C5B421A44FB68DA60FB68DA6813
:10468000FB681B689A4207D2FB689A68FB681B6C40
:104690005B421A44FB68DA607B68022B05D13B69F8
:1046A000002B02D03B69013B3B613B695A1CFB6814
:1046B0009A637B6918461837BD4680BD80B582B0C5
:1046C00000AF786039607B681B6C002B18D07B686A
:1046D000DA687B681B6C1A447B68DA607B68DA688E
:1046E0007B689B689A4203D37B681A687B68DA60B0
:1046F0007B68D9687B681B6C1A46386803F0FAFA45
:1047000000BF0837BD4680BD80B584B000AF78607B
:1047100001F0A8FE7B6893F84530FB7311E07B68DD
:104720005B6A002B12D07B682433184600F0BAFD78
:104730000346002B01D000F091FEFB7B013BDBB276
:10474000FB7397F90F30002BE9DC00E000BF7B68BA
:10475000FF2283F8452001F0B5FE01F083FE7B685F
:1047600093F84430BB7311E07B681B69002B12D0B7
:104770007B681033184600F095FD0346002B01D0EE
:1047800000F06CFEBB7B013BDBB2BB7397F90E30D4
:10479000002BE9DC00E000BF7B68FF2283F84420A7
:1047A00001F090FE00BF1037BD4680BD80B584B0DB
:1047B00000AF786001F056FE7B689B6B002B02D146
:1047C0000123FB6001E00023FB6001F07BFEFB683E
:1047D00018461037BD4680BD80B584B000AF786004
:1047E00001F040FE7B689A6B7B68DB6B9A4202D1DA
:1047F0000123FB6001E00023FB6001F063FEFB6826
:1048000018461037BD4680BD80B485B000AF7860D3
:1048100039600023FB6014E00F4AFB6852F8333024
:10482000002B0BD10C49FB683A6841F833200A4A47
:10483000FB68DB0013447A685A6006E0FB680133CA
:10484000FB60FB68072BE7D900BF00BF1437BD46EC
:104850005DF8047B704700BF4C09002080B586B02E
:1048600000AFF860B9607A60FB687B6101F0FAFD27
:104870007B6993F844305BB2B3F1FF3F03D17B69AE
:10488000002283F844207B6993F845305BB2B3F192
:10489000FF3F03D17B69002283F8452001F012FE1F
:1048A0007B699B6B002B06D17B6924337A68B968DE
:1048B000184600F0CBFC7869FFF726FF00BF1837D9
:1048C000BD4680BD80B58EB004AFF860B9607A6037
:1048D0003B607B6B002B0AD14FF0500383F31188B0
:1048E000BFF36F8FBFF34F8F3B6200BFFEE7BB6B21
:1048F000002B0AD14FF0500383F31188BFF36F8F61
:10490000BFF34F8FFB6100BFFEE75C233B613B6958
:104910005C2B0AD04FF0500383F31188BFF36F8FE5
:10492000BFF34F8FBB6100BFFEE73B69BB6B002B42
:104930001ED07B6B002B1BD0BB6B7B627B6A7A6BC0
:104940001A637B6A022283F85920002303937B6A4F
:10495000029307F1140301933B6B00933B687A6861
:10496000B968F86800F050F8786A00F0DDF801E006
:1049700000237B617B6918462837BD4680BD80B522
:104980008CB004AFF860B9603B601346FB80FB88D5
:104990009B00184601F088FE78617B69002B0ED0E1
:1049A0005C2001F081FEF861FB69002B03D0FB69FC
:1049B0007A691A6305E0786901F042FF01E000239B
:1049C000FB61FB69002B17D0FB69002283F859209B
:1049D000FA8800230393FB690293FB6A0193BB6A85
:1049E00000933B68B968F86800F00EF8F86900F0C9
:1049F0009BF80123BB6102E04FF0FF33BB61BB6951
:104A000018462037BD4680BD80B588B000AFF8603D
:104A1000B9607A603B603B6B186B7B689B001A4601
:104A2000A52103F075F93B6B1A6B7B6803F180439A
:104A3000013B9B001344BB61BB6923F00703BB61CF
:104A4000BB6903F00703002B0AD04FF0500383F338
:104A50001188BFF36F8FBFF34F8F7B6100BFFEE7FD
:104A6000BB68002B1FD00023FB6112E0BA68FB6912
:104A7000134419783A6BFB69134434330A461A70AD
:104A8000BA68FB6913441B78002B06D0FB6901331D
:104A9000FB61FB690F2BE9D900E000BF3B6B0022F3
:104AA00083F8432003E03B6B002283F83420BB6A89
:104AB000372B01D93723BB623B6BBA6ADA623B6B97
:104AC000BA6ADA643B6B00221A653B6B0433184602
:104AD000FEF7E4FE3B6B18331846FEF7DFFE3B6B38
:104AE0003A6B1A61BB6AC3F138023B6B9A613B6B4C
:104AF0003A6B5A623B6B00225A653B6B002283F88B
:104B000058203A68F968B86901F080FB02463B6BAF
:104B10001A60FB6A002B02D0FB6A3A6B1A6000BF76
:104B20002037BD4680BD000080B582B000AF786000
:104B300001F098FC2D4B1B6801332C4A13602C4B61
:104B40001B68002B09D12A4A7B681360274B1B681E
:104B5000012B10D100F0A6FC0DE0264B1B68002BAA
:104B600009D1234B1B68DA6A7B68DB6A9A4202D858
:104B70001F4A7B681360204B1B6801331E4A136079
:104B80001D4B1A687B685A647B68DA6A1B4B1B688A
:104B90009A4203D97B68DB6A184A13607B68DA6A39
:104BA00013469B0013449B00154A1A447B68043348
:104BB00019461046FEF77FFE01F084FC0D4B1B6882
:104BC000002B0ED00A4B1B68DA6A7B68DB6A9A42BC
:104BD00007D20C4B4FF080521A60BFF34F8FBFF3D8
:104BE0006F8F00BF0837BD4680BD00BF600E00203C
:104BF0008C0900206C0E00207C0E0020680E002026
:104C00009009002004ED00E080B58AB000AF786024
:104C1000396000237B627B68002B0AD14FF0500380
:104C200083F31188BFF36F8FBFF34F8F7B6100BF9A
:104C3000FEE73B68002B0AD14FF0500383F3118845
:104C4000BFF36F8FBFF34F8F3B6100BFFEE72A4B6F
:104C50001B68002B0AD04FF0500383F31188BFF379
:104C60006F8FBFF34F8FFB6000BFFEE700F0E4F8EB
:104C7000224B1B683B627B681B683A681344FB61EC
:104C80007B681B683A6A9A420BD27B681B68FA6998
:104C90009A4211D2FA693B6A9A420DD901237B628A
:104CA0000AE07B681B68FA699A4203D3FA693B6A97
:104CB0009A4201D901237B627B68FA691A607B6A98
:104CC000002B06D0FA693B6AD31A0021184600F07F
:104CD00041FE00F0BFF8B861BB69002B07D1084B5B
:104CE0004FF080521A60BFF34F8FBFF36F8F00BF3A
:104CF0002837BD4680BD00BF880E0020640E00200E
:104D000004ED00E080B584B000AF78600023FB6064
:104D10007B68002B17D0134B1B68002B0AD04FF079
:104D2000500383F31188BFF36F8FBFF34F8FBB60C6
:104D300000BFFEE700F080F80021786800F00AFE6E
:104D400000F088F8F860FB68002B07D1064B4FF0A5
:104D500080521A60BFF34F8FBFF36F8F00BF1037C1
:104D6000BD4680BD880E002004ED00E080B58AB00D
:104D700004AF0023BB6000237B603A46391D07F176
:104D800008031846FEF736FD39687B68BA68029258
:104D900001930023009300230A4621492148FFF78D
:104DA00091FD0346204A13601F4B1B68002B02D065
:104DB00001237B6101E000237B617B69012B02D130
:104DC00000F01CFE78617B69012B16D14FF0500377
:104DD00083F31188BFF36F8FBFF34F8F3B6100BF29
:104DE000124B4FF0FF321A60114B01221A60114B27
:104DF00000221A6001F094FA0EE07B69B3F1FF3FE4
:104E00000AD14FF0500383F31188BFF36F8FBFF3C4
:104E10004F8FFB6000BFFEE700BF1837BD4680BD67
:104E20008CA7000875540008840E0020800E002016
:104E30006C0E0020640E002080B400AF044B1B6891
:104E40000133034A136000BFBD465DF8047B704721
:104E5000880E002080B584B000AF0023FB600023E3
:104E6000BB60424B1B68002B0AD14FF0500383F309
:104E70001188BFF36F8FBFF34F8F3B6000BFFEE71A
:104E800001F0F0FA394B1B68013B384A1360374B8D
:104E90001B68002B62D1364B1B68002B5ED02FE0C5
:104EA000344BDB68DB68FB60FB6818331846FEF7A1
:104EB0005FFDFB6804331846FEF75AFDFB68DA6AAB
:104EC0002D4B1B689A4203D9FB68DB6A2A4A1360A0
:104ED000FB68DA6A13469B0013449B00274A1A4476
:104EE000FB68043319461046FEF7E5FCFB68DA6AF6
:104EF000234B1B68DB6A9A4202D3224B01221A60C1
:104F00001C4B1B68002BCBD1FB68002B01D000F0A1
:104F100067FB1D4B1B687B607B68002B10D000F08B
:104F200059F80346002B02D0164B01221A607B6809
:104F3000013B7B607B68002BF1D1134B00221A6090
:104F4000104B1B68002B09D00123BB600F4B4FF0A7
:104F500080521A60BFF34F8FBFF36F8F01F0B2FA28
:104F6000BB6818461037BD4680BD00BF880E0020C4
:104F7000600E0020200E0020680E00209009002006
:104F80008C090020740E0020700E002004ED00E05B
:104F900080B483B000AF054B1B687B607B6818460C
:104FA0000C37BD465DF8047B704700BF640E0020DF
:104FB00080B582B000AF01F037FB00237B60044B6B
:104FC0001B683B603B6818460837BD4680BD00BF84
:104FD000640E002080B586B000AF00237B614F4B8C
:104FE0001B68002B40F08F804D4B1B6801333B61E9
:104FF0004B4A3B6913603B69002B20D1494B1B682E
:105000001B68002B0AD04FF0500383F31188BFF3C5
:105010006F8FBFF34F8F3B6000BFFEE7414B1B68B4
:10502000FB60414B1B683F4A13603F4AFB681360BB
:105030003E4B1B6801333D4A136000F0D1FA3C4BF4
:105040001B683A699A4249D3364B1B681B68002B90
:1050500004D1374B4FF0FF321A603FE0314B1B68F1
:10506000DB68DB68BB60BB685B687B603A697B6858
:105070009A4203D22E4A7B6813602FE0BB68043348
:105080001846FEF775FCBB689B6A002B04D0BB6812
:1050900018331846FEF76CFCBB68DA6A254B1B68B0
:1050A0009A4203D9BB68DB6A224A1360BB68DA6A9A
:1050B00013469B0013449B001F4A1A44BB680433E9
:1050C00019461046FEF7F7FBBB68DA6A1B4B1B68F4
:1050D000DB6A9A42B8D301237B61B5E7174B1B68A3
:1050E000DA6A154913469B0013449B000B441B6866
:1050F000012B01D901237B61114B1B68002B07D0C9
:1051000001237B6104E00F4B1B6801330D4A1360E0
:105110007B6918461837BD4680BD00BF880E002049
:10512000640E0020180E00201C0E0020780E0020B7
:10513000800E0020680E0020900900208C090020BD
:10514000740E0020700E002080B485B000AF284B94
:105150001B68002B03D0274B01221A6041E0254B2E
:1051600000221A60244B1B68FB6010E0FB68002BD8
:105170000AD14FF0500383F31188BFF36F8FBFF351
:105180004F8F7B6000BFFEE7FB68013BFB601B4964
:10519000FA6813469B0013449B000B441B68002BCA
:1051A000E4D0FA6813469B0013449B00134A13444F
:1051B000BB60BB685B685A68BB685A60BB685A686A
:1051C000BB6808339A4204D1BB685B685A68BB6805
:1051D0005A60BB685B68DB68094A1360064AFB6873
:1051E000136000BF1437BD465DF8047B704700BFF5
:1051F000880E0020740E0020680E00209009002008
:105200008C09002080B584B000AF786039607B687D
:10521000002B0AD14FF0500383F31188BFF36F8F37
:10522000BFF34F8FFB6000BFFEE7074B1B681833CF
:1052300019467868FEF763FB0121386800F08AFBA5
:1052400000BF1037BD4680BD8C09002080B586B0F8
:1052500000AFF860B9607A60FB68002B0AD14FF0AC
:10526000500383F31188BFF36F8FBFF34F8F7B61C0
:1052700000BFFEE70A4B1B6818331946F868FEF7B3
:105280001AFB7B68002B02D04FF0FF33BB607968BC
:10529000B86800F05FFB00BF1837BD4680BD00BF97
:1052A0008C09002080B586B000AF78607B68DB6831
:1052B000DB683B613B69002B0AD14FF0500383F35D
:1052C0001188BFF36F8FBFF34F8FFB6000BFFEE706
:1052D0003B6918331846FEF74BFB1E4B1B68002B2F
:1052E0001DD13B6904331846FEF742FB3B69DA6A7D
:1052F000194B1B689A4203D93B69DB6A164A136053
:105300003B69DA6A13469B0013449B00134A1A4414
:105310003B69043319461046FEF7CDFA05E03B69B8
:10532000183319460E48FEF7C6FA3B69DA6A0D4B88
:105330001B68DB6A9A4205D901237B610A4B012273
:105340001A6001E000237B617B6918461837BD466F
:1053500080BD00BF880E0020680E0020900900204C
:10536000200E00208C090020740E002080B483B031
:1053700000AF7860064B1A687B681A60054B1A68A4
:105380007B685A6000BF0C37BD465DF8047B7047F0
:10539000780E0020640E002080B588B000AF7860E1
:1053A00039607B68002B0AD14FF0500383F31188DA
:1053B000BFF36F8FBFF34F8F3B6100BFFEE73B68CA
:1053C000002B0AD14FF0500383F31188BFF36F8F86
:1053D000BFF34F8FFB6000BFFEE701F043F81D4BAA
:1053E0001B68BB617B685B68BA69D31A7B613B68E9
:1053F0001B68B3F1FF3F02D10023FB6123E07B6810
:105400001A68154B1B689A4207D07B685B68BA69BB
:105410009A4202D30123FB6115E03B681B687A695D
:105420009A420BD23B681A687B69D21A3B681A60B1
:105430007868FFF79BFF0023FB6104E03B680022D4
:105440001A600123FB6101F03DF8FB691846203723
:10545000BD4680BD640E0020780E002080B400AFF1
:10546000034B01221A6000BFBD465DF8047B704704
:10547000740E002080B582B000AF786000F052F862
:10548000064B1B68012BF9D9054B4FF080521A606F
:10549000BFF34F8FBFF36F8FF0E700BF900900207D
:1054A00004ED00E080B582B000AF00237B600CE02B
:1054B0007A6813469B0013449B00124A1344184613
:1054C000FEF7CCF97B6801337B607B68372BEFD923
:1054D0000D48FEF7C3F90D48FEF7C0F90C48FEF77A
:1054E000BDF90C48FEF7BAF90B48FEF7B7F90B4BBC
:1054F000054A1A600A4B054A1A6000BF0837BD46C4
:1055000080BD00BF90090020F00D0020040E002097
:10551000200E0020340E00204C0E0020180E00201B
:105520001C0E002080B582B000AF19E000F09AFF99
:10553000104BDB68DB687B607B6804331846FEF742
:1055400017FA0D4B1B68013B0B4A13600B4B1B6892
:10555000013B0A4A136000F0B5FF786800F010F8CC
:10556000064B1B68002BE1D100BF00BF0837BD46CA
:1055700080BD00BF340E0020600E0020480E0020C9
:1055800080B584B000AF78607B6893F85930002B09
:1055900008D17B681B6B184601F052F9786801F05E
:1055A0004FF918E07B6893F85930012B03D17868E4
:1055B00001F046F90FE07B6893F85930022B0AD0CE
:1055C0004FF0500383F31188BFF36F8FBFF34F8FFA
:1055D000FB6000BFFEE700BF1037BD4680BD000086
:1055E00080B483B000AF0C4B1B681B68002B04D148
:1055F0000A4B4FF0FF321A6008E0074B1B68DB686C
:10560000DB687B607B685B68044A136000BF0C3713
:10561000BD465DF8047B7047180E0020800E002008
:1056200080B483B000AF054B1B687B607B68184675
:105630000C37BD465DF8047B704700BF8C09002025
:1056400080B483B000AF0B4B1B68002B02D1012349
:105650007B6008E0084B1B68002B02D102237B60B3
:1056600001E000237B607B6818460C37BD465DF87F
:10567000047B70476C0E0020880E002080B584B03B
:1056800000AF78607B68BB600023FB607B68002B09
:1056900051D0BB68DA6A2A4B1B68DB6A9A4241D256
:1056A000BB689B69002B06DB254B1B68DB6AC3F1DB
:1056B0003802BB689A61BB685969BB68DA6A1346ED
:1056C0009B0013449B001F4A1344994222D1BB689C
:1056D00004331846FEF74CF9194B1B68DA6ABB68AD
:1056E000DA62BB68DA6A184B1B689A4203D9BB6856
:1056F000DB6A154A1360BB68DA6A13469B001344E1
:105700009B00104A1A44BB68043319461046FEF742
:10571000D2F804E00A4B1B68DA6ABB68DA6201233C
:10572000FB6008E0BB68DA6C054B1B68DB6A9A42D9
:1057300001D20123FB60FB6818461037BD4680BDCF
:105740008C09002090090020680E002080B586B0EA
:1057500000AF78607B683B6100237B617B68002B36
:1057600056D02E4B1B683A699A420AD04FF050032C
:1057700083F31188BFF36F8FBFF34F8FFB6000BFC0
:10578000FEE73B691B6D002B0AD14FF0500383F3FA
:105790001188BFF36F8FBFF34F8FBB6000BFFEE771
:1057A0003B691B6D5A1E3B691A653B69DA6A3B69A6
:1057B000DB6C9A422CD03B691B6D002B28D13B69D6
:1057C00004331846FEF7D4F83B69DA6C3B69DA62B9
:1057D0003B69DB6AC3F138023B699A613B69DA6A6B
:1057E0000F4B1B689A4203D93B69DB6A0C4A136072
:1057F0003B69DA6A13469B0013449B00094A1A442A
:105800003B69043319461046FEF755F801237B61C6
:105810007B6918461837BD4680BD00BF8C09002043
:10582000680E00209009002080B588B000AF786035
:1058300039607B68BB6101237B617B68002B6AD088
:10584000BB691B6D002B0AD14FF0500383F3118805
:10585000BFF36F8FBFF34F8FFB6000BFFEE7BB69E5
:10586000DB6C3A689A4202D93B68FB6102E0BB6993
:10587000DB6CFB61BB69DB6AFA699A424BD0BB699E
:105880001B6D7A699A4246D1254B1B68BA699A42C8
:105890000AD14FF0500383F31188BFF36F8FBFF32A
:1058A0004F8FBB6000BFFEE7BB69DB6A3B61BB6932
:1058B000FA69DA62BB699B69002B04DBFB69C3F1FF
:1058C0003802BB699A61BB6959693A6913469B0002
:1058D00013449B00134A134499421CD1BB690433FF
:1058E0001846FEF745F8BB69DA6A0F4B1B689A4207
:1058F00003D9BB69DB6A0C4A1360BB69DA6A1346D9
:105900009B0013449B00074A1A44BB6904331946A1
:105910001046FDF7D0FF00BF2037BD4680BD00BF59
:105920008C09002090090020680E002080B400AF90
:10593000074B1B68002B04D0054B1B681A6D013206
:105940001A65034B1B681846BD465DF8047B70471B
:105950008C09002080B584B000AF78603960214B9D
:105960001B68FB60204B1B6804331846FEF700F8E9
:105970007B68B3F1FF3F0AD13B68002B07D01A4B7D
:105980001B68043319461948FDF795FF26E0FA68AD
:105990007B681344BB60144B1B68BA685A60BA68D2
:1059A000FB689A4209D2124B1A680F4B1B680433EA
:1059B00019461046FDF7A3FF10E00E4B1A680A4B7C
:1059C0001B68043319461046FDF799FF0A4B1B6804
:1059D000BA689A4202D2084ABB68136000BF103707
:1059E000BD4680BD640E00208C0900204C0E0020B6
:1059F0001C0E0020180E0020800E002080B58AB0FA
:105A000004AF00237B6100F0A1FB1C4B1B68002B43
:105A100021D00023FB600023BB603A1D07F1080181
:105A200007F10C031846FDF7FFFE7968BB68FA68BA
:105A3000029201930223009300230A461049114861
:105A4000FEF740FF0346104A13600F4B1B68002B04
:105A500001D001237B617B69002B0AD14FF05003F9
:105A600083F31188BFF36F8FBFF34F8F3B6100BF8C
:105A7000FEE77B6918461837BD4680BDBC0E002086
:105A800094A70008F55C0008C00E002080B588B01F
:105A900002AFF860B9607A603B602C2000F004FE31
:105AA00078617B69002B0DD07B69002283F8282068
:105AB0007B6901933B6A00933B687A68B968F86830
:105AC00000F043F87B6918461837BD4680BD80B5A5
:105AD0008AB002AFF860B9607A603B602C233B610A
