:020000040800F2
:1000000000000220BD090008250900082709000892
:10001000290900082B0900082D090008000000002C
:100020000000000000000000000000007133000824
:100030002F09000800000000013400083109000801
:100040000D0A00080D0A00080D0A00080D0A000834
:100050000D0A00080D0A00080D0A00080D0A000824
:100060000D0A00080D0A00080D0A00080D0A000814
:100070000D0A00080D0A00080D0A00080D0A000804
:100080000D0A00080D0A00080D0A00080D0A0008F4
:100090000D0A00080D0A00080D0A00080D0A0008E4
:1000A0000D0A00080D0A00080D0A00080D0A0008D4
:1000B0000D0A00080D0A00080D0A00080D0A0008C4
:1000C0000D0A00080D0A00080D0A00080D0A0008B4
:1000D0000D0A00080D0A00080D0A00080D0A0008A4
:1000E0000D0A00080D0A00080D0A00080D0A000894
:1000F0000D0A00080D0A00080D0A00080D0A000884
:100100000D0A00080D0A00080D0A00080D0A000873
:100110000D0A00080D0A00080D0A00080D0A000863
:100120000D0A00080D0A00080D0A00080D0A000853
:100130000D0A00080D0A00080D0A00080D0A000843
:100140000D0A00080D0A00080D0A00080D0A000833
:100150000D0A00080D0A00080D0A00080D0A000823
:100160000D0A00080D0A00080D0A00080D0A000813
:100170000D0A00080D0A00080D0A00080000000022
:080180000D0A00080D0A000839
:1001900010B5054C237833B9044B13B10448AFF3C1
:1001A00000800123237010BD940000200000000097
:1001B000F43D000808B5034B1BB103490348AFF3F6
:1001C000008008BD0000000098000020F43D0008F9
:1001D00053B94AB9002908BF00281CBF4FF0FF31AE
:1001E0004FF0FF3000F074B9ADF1080C6DE904CEAA
:1001F00000F006F8DDF804E0DDE9022304B0704702
:100200002DE9F047089D04468E46002B4DD18A42C9
:10021000944669D9B2FA82F252B101FA02F3C2F1FC
:10022000200120FA01F10CFA02FC41EA030E94408D
:100230004FEA1C48210CBEFBF8F61FFA8CF708FBAE
:1002400016E341EA034306FB07F199420AD91CEB86
:10025000030306F1FF3080F01F81994240F21C81B8
:10026000023E63445B1AA4B2B3FBF8F008FB103300
:1002700044EA034400FB07F7A7420AD91CEB040435
:1002800000F1FF3380F00A81A74240F20781644405
:10029000023840EA0640E41B00261DB1D44000238A
:1002A000C5E900433146BDE8F0878B4209D9002DEE
:1002B00000F0EF800026C5E9000130463146BDE878
:1002C000F087B3FA83F6002E4AD18B4202D38242E2
:1002D00000F2F980841A61EB030301209E46002D91
:1002E000E0D0C5E9004EDDE702B9FFDEB2FA82F2E6
:1002F000002A40F09280A1EB0C014FEA1C471FFA44
:100300008CFE0126200CB1FBF7F307FB131140EA2A
:1003100001410EFB03F0884208D91CEB010103F1F7
:10032000FF3802D2884200F2CB804346091AA4B2B9
:10033000B1FBF7F007FB101144EA01440EFB00FE8D
:10034000A64508D91CEB040400F1FF3102D2A645F2
:1003500000F2BB800846A4EB0E0440EA03409CE791
:10036000C6F12007B34022FA07FC4CEA030C20FA3E
:1003700007F401FA06F31C43F9404FEA1C4900FA5E
:1003800006F3B1FBF9F8200C1FFA8CFE09FB1811DB
:1003900040EA014108FB0EF0884202FA06F20BD94E
:1003A0001CEB010108F1FF3A80F08880884240F29E
:1003B0008580A8F102086144091AA4B2B1FBF9F0E2
:1003C00009FB101144EA014100FB0EFE8E4508D9DD
:1003D0001CEB010100F1FF346CD28E456AD9023862
:1003E000614440EA0840A0FB0294A1EB0E01A14247
:1003F000C846A64656D353D05DB1B3EB080261EBB5
:100400000E0101FA07F722FA06F3F1401F43C5E98E
:10041000007100263146BDE8F087C2F12003D840C4
:100420000CFA02FC21FA03F3914001434FEA1C4706
:100430001FFA8CFEB3FBF7F007FB10360B0C43EAF8
:10044000064300FB0EF69E4204FA02F408D91CEBA8
:10045000030300F1FF382FD29E422DD902386344A6
:100460009B1B89B2B3FBF7F607FB163341EA034146
:1004700006FB0EF38B4208D91CEB010106F1FF3895
:1004800016D28B4214D9023E6144C91A46EA00468C
:1004900038E72E46284605E70646E3E61846F8E61E
:1004A0004B45A9D2B9EB020864EB0C0E0138A3E767
:1004B0004646EAE7204694E74046D1E7D0467BE748
:1004C000023B614432E7304609E76444023842E7C0
:1004D000704700BF0148052100F0AABAC000002003
:1004E000012A02D1016000207047022A04BF0B6874
:1004F0000360F8E70368D1E9002003EB00134F2104
:100500009954704710B594B01422002109A803F043
:1005100027FB1422002103A803F022FB00231F4A1B
:100520000193116C41F080511164126C02F0805201
:100530000192019A1A4A0293116841F480411160B4
:100540001268022402F480420820CDE90E43029290
:10055000A823CDE91003029A089401211022042354
:1005600008A8CDE90B121294139300F0F5FC08B122
:1005700072B6FEE70F23CDE9033405904FF4A05285
:100580004FF48053052103A8CDE9062300F0C2FEF5
:1005900008B172B6FEE714B010BD00BF00380240CB
:1005A0000070004000B58BB000F06CFBFFF7AAFFB5
:1005B000142200210DEB020003F0D2FA0024404B7C
:1005C00000941A6B3F4842F080021A631A6B02F0E3
:1005D00080020092009A01941A6B42F002021A63A0
:1005E0001A6B02F002020192019A02941A6B42F015
:1005F00010021A631A6B02F010020292029A03941C
:100600001A6B42F004021A631A6B02F0040203929E
:10061000039A04941A6B42F001021A631B6B03F0F5
:100620000103049322464FF68041049B00F08EFCA8
:10063000022203232448079405A9CDE905230125B7
:1006400000F0A4FB4FF680431E4805A9CDE905350F
:10065000CDE9074400F09AFB4FF434631B4807943C
:1006600005A9CDE9053400F091FB4FF4004305A93D
:1006700017480794CDE9053400F088FB00F0F0FE40
:10068000144B15482246294600F0AEFF134B144A7E
:1006900018600821084601F06FF8124B124A1860E2
:1006A0002146124800F034FF114B124A18602146CF
:1006B000114800F02DFF114B186000F0E3FEFEE73B
:1006C00000380240001002400004024000080240CE
:1006D00000000240F03E0008D5040008B8000020E9
:1006E000D83E0008B0000020103F0008F5070008C1
:1006F00018010020B43E000895080008B40000204E
:1007000082B04FF47A730190019AB2FBF3F103FBCC
:10071000112252B1019AB2FBF3F30193019B013311
:100720000193019802B000F03CBF019AB2FBF3F3D1
:10073000F6E7000007B5009005488DF80410002387
:100740001A466946006801F052F803B05DF804FBF0
:10075000B000002030B58FB0202205AC11462046F5
:1007600003F0FEF900238DF834301B4B186803F0BA
:10077000FFF818B100F0A7FE03F04AF8174B0493F6
:1007800001A8174B0393019403F07AF8039B1BB164
:1007900001A9032208469847124A134DD2E90023C3
:1007A0000EA901EB031313442B22286803F8242C11
:1007B0004FF0FF3100F0A0FF60B921460B4800F078
:1007C000F7F9286800F0BAFF00F076FE084B00F554
:1007D0007A7018600FB030BD10010020F5040008D9
:1007E000E10400087C4A0020BC000020000000203A
:1007F000140100200E480F4C08B5037823F00303C2
:10080000037000F0F4F903F077F800F05CFE02F0FA
:10081000FFFF094B094803221A6000F038FF084B1C
:100820001860FFF797FF206800F0C7FEF9E700BFE8
:10083000000000201401002010010020003F0008EB
:10084000BC00002070B4114C054694E80F0089B03C
:1008500010346E4686E80F0094E80F0008AC04E9F7
:100860000F000B4B04EB8500196850F8202C8A42CE
:1008700008D050F8100C814204D01A6009B070BC46
:10088000FFF768BF09B070BC704700BF0C3E00089E
:100890001001002007B50F490F48104C052200F049
:1008A000B6F80F4B0521186800F0DAFE20684FF00B
:1008B000FF330022694600F0CAFF0028F6D10098F5
:1008C0000328F3D89DF80430002BEFD0FFF7BAFFD0
:1008D000ECE700BF6C3E0008C0000020B000002024
:1008E000B800002082B00E4B00220092596C41F4F7
:1008F00080415964596C01F4804100910099019242
:10090000196C41F0805119641B6C03F08053019302
:10091000019B0F216FF0010002B000F0F1B900BFA0
:1009200000380240FEE7FEE7FEE7FEE7FEE770471D
:1009300008B500F0C1F902F067F9012803D0BDE85D
:10094000084002F08FBD08BD0120704708B503F0D4
:10095000BFF8162303604FF0FF3008BD08B503F061
:10096000B7F816230360FEE70B4A116810B503467B
:1009700009B90A491160106809490A4C0344091B66
:100980008B4206D903F0A4F80C2303604FF0FF302C
:1009900010BD1360FCE700BF1C010020984A002036
:1009A0000000022000040000034AD2F8883043F41B
:1009B0007003C2F88830704700ED00E0DFF834D0F3
:1009C0000D480E490E4A002302E0D458C4500433A7
:1009D000C4188C42F9D30B4A0B4C002301E013607E
:1009E0000432A242FBD3FFF7DFFF03F077F8FFF7F3
:1009F000D9FD704700000220000000209400002074
:100A0000703F000894000020984A0020FEE730B5AF
:100A100001EBC20200240325914200D130BD0472D3
:100A2000C5600B6803604B68436008311030F3E722
:100A30002DE9F04100250E4604462F464FF00108EF
:100A4000B54201D1BDE8F081204600F020F8E3680E
:100A500088B90B2B01D80133E360E368092B0ED969
:100A6000237A2BB984F8088001212846FFF762FE1B
:100A700001351034E4E7032BEFD9013BECE7052BFC
:100A8000F6D8237A002BF3D027720021EDE708B5C2
:100A90008188006800F054FA431E5842584108BD4E
:100AA0000A468188006800F051BAF8B506460F463C
:100AB00014460025BD4208D004F0010106EBC50034
:100AC000FFF7EEFF64080135F4E7F8BD70B50446A2
:100AD000061D0D4630460121FFF7E2FF05F00F022B
:100AE000E0690421FFF7E1FF0120FFF709FE30462E
:100AF0000021FFF7D5FFBDE870400120FFF700BEE1
:100B000070B504460D46143000211646FFF7C8FFA5
:100B100004F10C000021FFF7C3FF29092046FFF76D
:100B2000D5FF20462946FFF7D1FF3046BDE870408B
:100B3000FFF7E6BD1F290AD80F2982BF1039C9B2B5
:100B400041F040012D2241F08001FFF7D9BF7047ED
:100B50002DE9F04105461446FFF7ECFF013C002665
:100B600005F1140814F8013F0BB1202E01D1BDE8A6
:100B7000F081102E04D12D22C0212846FFF7C0FF9E
:100B8000277801214046FFF78BFF002105F10C007B
:100B9000FFF786FF39092846FFF798FF39462846B0
:100BA000FFF794FF01362D20FFF7AAFDF6B2D9E733
:100BB0000A460021FFF7CCBF4FF4C8620121FFF7BE
:100BC0009FBF4FF4C8620221FFF79ABF0378DA078C
:100BD00007D513F0020F0CBF0E210F212D22FFF7B6
:100BE0008FBF0C21FAE72D220621FFF789BF10B530
:100BF000002104461430FFF753FF002104F10C00DC
:100C0000FFF74EFF2820FFF77BFD20462D222821ED
:100C1000FFF776FF2D2228212046FFF771FF20469F
:100C2000FFF7D4FF2046FFF7C7FF2046FFF7DBFFA3
:100C30002046BDE81040FFF7C4BF000038B50E4A9B
:100C40000E4B054618784FF47A73B3FBF0F3106837
:100C5000B0FBF3F000F086F8044658B90F2D09D820
:100C6000024629464FF0FF3000F04AF8044B204678
:100C70001D6038BD0120FCE720000020240000207A
:100C80002800002008B50B4B1A6842F400721A6065
:100C90001A6842F480621A601A6842F480721A601C
:100CA000032000F01BF80F20FFF7C8FFFFF71AFE24
:100CB000002008BD003C0240034A044B11681B7829
:100CC0000B441360704700BF200100202400002067
:100CD000014B1868704700BF200100200749CA680F
:100CE00022F4E0620302120403F4E063120C1343E3
:100CF00043F0BF6343F40033CB60704700ED00E086
:100D0000164B30B5DC68C4F30224C4F10705231D7B
:100D1000042D28BF0425062B4FF0FF338CBF033C66
:100D2000002403FA05F521EA0501A34022EA0302A3
:100D3000A140002841EA0203ACBF00F16040084A2C
:100D40004FEA0313B8BF00F00F00DBB2AABF00F5F3
:100D50006140135480F8003330BD00BF00ED00E067
:100D600014ED00E00138B0F1807F0BD24FF0E023AA
:100D7000054A5861F02182F823100020072298616B
:100D80001A6170470120704700ED00E02DE9F74F30
:100D9000DFF8A891674A00230D6801249C4004EA0B
:100DA000050CAC4340F0B1804D6805F003044FEAF8
:100DB00043080326671E06FA08F6012F6FEA0606A7
:100DC00034D8876807EA060ECF6807FA08F747EABB
:100DD0000E078760476827EA0C0EC5F300179F408F
:100DE00047EA0E074760C76807EA060E8F6807FAEA
:100DF00008F747EA0E07022CC76019D14FEAD30A59
:100E000000EB8A0A03F0070BDAF820704FEA8B0B2D
:100E10004FF00F0E0EFA0BFE27EA0E0E0F6907FABF
:100E20000BF747EA0E07CAF8207001E0032CDAD16D
:100E3000076804FA08F43E40264315F4403F066074
:100E400063D04FF0000ACDF804A0D9F844603A4CC2
:100E500046F48046C9F84460D9F8446006F48046F8
:100E60000196019E23F0030606F1804606F59C36A6
:100E700003F0030ED6F808804FEA8E0E0F2707FA0C
:100E80000EF7A04228EA070746D004F58064A04286
:100E900044D004F58064A04242D004F58064A042AE
:100EA00040D004F58064A0423ED004F58064A042A6
:100EB0003CD004F58064A0423AD004F58064A0429E
:100EC0000CBF0724082404FA0EF43C43B460946871
:100ED0006FEA0C06EF0254BF34404CEA04049460FD
:100EE000D468AF0254BF34404CEA0404D460546860
:100EF000AF0354BF34404CEA040454601468ED035B
:100F000054BF34404CEA040414600133102B7FF4C6
:100F100043AF03B0BDE8F08F5446D4E70124D2E7D5
:100F20000224D0E70324CEE70424CCE70524CAE753
:100F30000624C8E7003C014000000240003802409F
:100F40000369194214BF0120002070470AB1816172
:100F500070470904FBE700002DE9F341044640B364
:100F60000368DD0710D4236898075ED423681A0746
:100F700000F1A08023685B0700F1C080A069002811
:100F800040F0288100202BE08F4B9A6802F00C0281
:100F9000042A07D09A6802F00C02082A0BD15A687A
:100FA000510208D5884B1B689A03DCD56368002B77
:100FB000D9D1012014E06268B2F5803F13D11A68DC
:100FC00042F480321A60FFF783FE7F4E0546336895
:100FD0009B03C8D4FFF77CFE401B6428F7D903208D
:100FE00002B0BDE8F081784DB2F5A02F2B6807D193
:100FF00043F480232B602B6843F480332B60E2E7BB
:1010000023F480332B602B6823F480232B60002A89
:10101000D9D1FFF75DFE06462B689F03A3D5FFF7E6
:1010200057FE801B6428F7D9D9E7674B9A6812F0FE
:101030000C0F07D09A6802F00C02082A11D15B68E5
:101040005E020ED4604A13689D0702D5E368012B47
:10105000AFD11368216923F0F80343EAC103136099
:1010600084E7E268594BB2B101221A60FFF730FE03
:10107000554D06462B68980707D52B68226923F043
:10108000F80343EAC2032B6070E7FFF721FE801BE1
:101090000228EFD9A3E71A60FFF71AFE4A4E054669
:1010A000336899077FF562AFFFF712FE401B0228F5
:1010B000F6D994E76269454B82B10122C3F8802ECC
:1010C000FFF706FE404E0546736F9F073FF552AF90
:1010D000FFF7FEFD401B0228F6D980E7C3F8802EFB
:1010E000FFF7F6FD384E0546736F98077FF542AF60
:1010F000FFF7EEFD401B0228F6D970E7324B1A6C61
:1011000012F0805228D101921A6C42F080521A6477
:101110001B6C03F080530193019B01272C4D2B681E
:10112000D9051BD5A368284D012B27D12B6F43F080
:1011300001032B67FFF7CCFD234E054641F28838AB
:10114000336F9B0739D5002F3FF418AF1E4A136C3D
:1011500023F08053136411E70027DFE72B6843F483
:1011600080732B60FFF7B4FD06462B68DA05D9D4EF
:10117000FFF7AEFD801B0228F7D930E7052B04D11D
:101180002B6F43F004032B67D0E72A6F22F0010294
:101190002A672A6F22F004022A67002BCAD1FFF7C0
:1011A00097FD41F2883806462B6F9807CBD5FFF79D
:1011B0008FFD801B4045F7D911E7FFF789FD401BE4
:1011C0004045BDD90BE700BF003802400000474250
:1011D00000700040364DAB6803F00C03082B3DD087
:1011E000344B002202281A662BD1FFF771FD064608
:1011F0002B6899011FD4D4E907321343626A43EA8A
:101200008213E26A43EA0263A26A5208013A43EA9D
:1012100002436B60274B264D01221A66FFF758FDEB
:1012200004462B689A013FF5ADAEFFF751FD001B58
:101230000228F6D9D3E6FFF74BFD801B0228D7D949
:10124000CDE6FFF745FD04462B689B017FF59AAE7E
:10125000FFF73EFD001B0228F6D9C0E601283FF447
:10126000BFAE6B68E26903F4800191427FF4A1AEE6
:10127000216A03F03F028A427FF49BAE616A47F61F
:10128000C0721A40B2EB811F7FF493AEA26A52087B
:1012900003F44031013AB1EB024F7FF48AAEE26AC7
:1012A00003F07063B3EB026F3FF46CAE81E600BFF6
:1012B0000038024000004742134908B58B6803F02C
:1012C0000C03042B1CD0082B1CD14A684B684968BE
:1012D00013F4800314BF0D480D48C1F3881118BFE3
:1012E000002302F03F02A1FB0001FEF771FF064B55
:1012F0005B68C3F3014301335B00B0FBF3F008BD4F
:101300000248FCE70248FAE70038024000127A007F
:101310000024F4002DE9F0410D46044610B90120E7
:10132000BDE8F081444B1A6802F007028A4228D3D4
:10133000226897072DD4D00741D43F4B1A6802F09A
:101340000702AA4266D8226851076CD4130707D552
:101350003A4A2169936823F4604343EAC1039360E6
:10136000FFF7AAFF354B364A9B68C3F30313D35CE0
:10137000D840344B1860344B1868FFF75FFC0020EE
:10138000CEE7CAB21A701B6803F007038B42C6D1BE
:10139000CEE72A4B12F0040F1EBF996841F4E051CA
:1013A0009960160742BF996841F4604199602349EA
:1013B000A0688B6823F0F00303438B60BBE762688F
:1013C0001E4B012A1CD11B6813F4003FA7D01B4EF3
:1013D000B36823F003031343B360FFF779FC41F2D2
:1013E00088380746B368626803F00C03B3EB820FDA
:1013F000A3D0FFF76DFCC01B4045F3D903208FE756
:10140000911E01291B6802D813F0007FDEE713F05C
:10141000020FDBE7EAB21A701B6803F00703AB4266
:101420007FF47DAF8FE70549E0688B6823F4E053D4
:1014300003438B608AE700BF003C02400038024053
:10144000343F0008200000202800002010B501F0E3
:1014500023FF20B1BDE81040D0E90030184710BD8F
:10146000EFF305832BB9064B186828B901221A60DF
:1014700070476FF0050070474FF0FF30704700BFB6
:101480008003002010B5EFF305845CB9084B1A689F
:10149000012A0AD1074AD47702221A6001F0D8F84B
:1014A000204610BD6FF00500FBE74FF0FF30F8E776
:1014B0008003002000ED00E0EFF305830BB101F0A5
:1014C0001BB901F013B938B5EFF31083F3B9EFF39B
:1014D0001184003C18BF012472B601F007F94FF0E7
:1014E000E022536991691569ED0342BF536992691E
:1014F0009B1A4FF0E02248BF0130526958BF5B1A77
:1015000002FB0000184404B962B638BD0124E3E7C9
:10151000F0B587B0144600220B460592EFF3058222
:10152000D2B9C8B1002C2FD0A569002D08BF18254D
:10153000691E3729AC462BD86168C90728D466696B
:101540006EB1B208D4E9027E216857B1BEF15B0FDB
:1015500002D9246904B1EEB9059807B0F0BD802224
:10156000F0E7BEF1000FF7D12469002CF4D10C464E
:1015700005A9CDE900C192B2214601F03CF801284D
:101580001CBF00230593E7E74FF0180C8022EFE71C
:101590001046E2E7CDE90147009500F0F4FF059021
:1015A000DAE710B5EFF3058424B910B101F0FEF9C4
:1015B000204610BD6FF00500FBE737B50546EFF399
:1015C00005845CB901F092F8291A0029019008DD20
:1015D00001A801F0A3F9204603B030BD6FF005006B
:1015E000FAE76FF00300F7E72DE9F34107460E46EF
:1015F00090461D46EFF305831BB1002002B0BDE805
:10160000F0810028F9D0082002F02CF804460028C8
:10161000F3D0321EC0E9007818BF012265B1D5E9C8
:10162000023128682BB12B290ED8204602F0B2F8DF
:10163000E3E70029F9D10546084B00930121234631
:10164000284601F07FFC06E00193044B0093012142
:10165000234601F091FC0028D0D1E6E74D140008A4
:1016600013B50A46EFF305835BB968B10093042113
:1016700001F0AAFC01280CBF00206FF0020002B0AC
:1016800010BD6FF00500FAE76FF00300F7E770B5E3
:101690000546EFF3058616B10024204670BD10B153
:1016A00046683307F8D406F001067DB1D5E9021388
:1016B00051B14F2BF0D9DEB1042000F045FB0446B8
:1016C0000028E9D02D680AE0002BE5D196B104206E
:1016D00000F06DFB04460028DED0002DF2D1294633
:1016E000204600F0B7FD002ED7D044F00104D4E727
:1016F0000120E2E70120EBE7034610B520F00100EE
:101700000C4603F00103EFF305828AB998B163B187
:1017100000F02EFD012801D1002010BD002C14BFC7
:101720006FF001006FF00200F7E700F05EFCF1E7F8
:101730006FF00500F1E76FF00300EEE708B5034630
:1017400003F0010320F00100EFF3058272B980B1CC
:101750003BB100F00EFB01280CBF00206FF002002F
:1017600008BD1A46194600F03CFAF4E76FF0050090
:10177000F6E76FF00300F3E7F7B505460E461446AB
:10178000EFF305871FB10025284603B0F0BD002800
:10179000F9D00029F7D0DAB1D2E9023283B14F2A69
:1017A000F1D92269002AEED066694D43AE42EAD3F0
:1017B000009700F0A1F905460028E4D0246811E064
:1017C000002AE0D12369002BDDD16369002BDAD137
:1017D00028460022314600F0DDF905460028D2D027
:1017E000002CEBD12146284600F034FDCCE773B540
:1017F0001C46EFF30586C6B118B311B30BBB01AAA3
:10180000019300F0F1FA012818D1019B13B90020CF
:1018100002B070BD4FF0E0234FF08052C3F8042DAA
:10182000BFF34F8FBFF36F8FF1E750B149B133462C
:10183000224600F0D6F90128E9D02CB96FF0020059
:10184000E6E76FF00300E3E76FF00100E0E737B58C
:101850001C46EFF30583C3B110B309B304BB01AA5F
:10186000019400F0A7FC012817D1019B13B90020B7
:1018700003B030BD4FF0E0234FF08052C3F8042D89
:10188000BFF34F8FBFF36F8FF1E748B141B12246ED
:1018900000F00CFB0128EAD02CB96FF00200E7E75A
:1018A0006FF00300E4E76FF00100E1E7034B036032
:1018B000034B0B6080231360704700BF240300209C
:1018C00024010020034B0360034B0B604FF4807333
:1018D00013607047840700208403002000F1080390
:1018E0004FF0FF32C0E9022343600361002303602D
:1018F000704700230361704743684B609A688A60B1
:101900009A68516099600368086101330360704709
:1019100030B50C68631C0AD103695A684A6091604B
:101920008B605960036808610133036030BD00F1CA
:101930000802134652681568A542FAD9EDE7D0E9C6
:10194000011203698A6051605968814208BF5A6078
:10195000002202611A68013A1A601868704710B5CF
:10196000044601F017FDA46B01F034FDB4FA84F0D5
:10197000400910BDF8B51546026C866B044652B995
:10198000076847BB806801F091F9A76005460136FA
:10199000A6632846F8BD65B9406802F0D3F86368CD
:1019A000226C1344A26863609342F0D3236863609F
:1019B000EDE7C06802F0C6F8226CE36851429B1A5A
:1019C0002268E36093423EBFA3685B18E360022D88
:1019D00001D116B1013E0025D9E73546D7E70346C8
:1019E00010B41A6C08466AB1DC68996814448C42D9
:1019F00028BF1968DC6028BFD960D9685DF8044B3E
:101A000002F0A0B85DF8044B704770B5044601F0D1
:101A1000C1FC94F8455004F124066DB2002D14DC8D
:101A2000FF2384F8453001F0D5FC01F0B3FC94F8B5
:101A3000445004F110066DB2002D12DCFF2384F82F
:101A40004430BDE8704001F0C5BC636A002BE7D0AC
:101A5000304601F041F808B101F0CAF8013D6DB21D
:101A6000DCE72369002BE9D0304601F035F808B1F6
:101A700001F0BEF8013D6DB2DEE738B50D46044613
:101A800040B94FF0500383F31188BFF36F8FBFF35A
:101A90004F8FFEE701F07EFCD4E90F3122686260CF
:101AA0004B43D0185B1A1344A060E3600020FF236F
:101AB000A06384F8443084F84530A5B9236973B134
:101AC00004F1100001F008F848B14FF0E0234FF0A6
:101AD0008052C3F8042DBFF34F8FBFF36F8F01F017
:101AE00079FC012038BD04F11000FFF7F7FE04F186
:101AF0002400FFF7F3FEF2E713B51C4640B94FF0A0
:101B0000500383F31188BFF36F8FBFF34F8FFEE74E
:101B100043B94FF0500383F31188BFF36F8FBFF3C6
:101B20004F8FFEE74AB191B94FF0500383F311880C
:101B3000BFF36F8FBFF34F8FFEE741B14FF05003FC
:101B400083F31188BFF36F8FBFF34F8FFEE75023EE
:101B50000193019B502B08D04FF0500383F3118861
:101B6000BFF36F8FBFF34F8FFEE7002908BF2246F8
:101B7000019B22600123C4E90F0184F84630194615
:101B80002046FFF77AFF9DF8103084F84C3020464D
:101B900002B010BDF8B50D461746064640B94FF0E5
:101BA000500383F31188BFF36F8FBFF34F8FFEE7AE
:101BB0004843503001F056FD044670B1002380F8D0
:101BC000463065B100F15003C4E90F65236001217F
:101BD0002046FFF752FF84F84C702046F8BD0346BC
:101BE000F2E72DE9F04385B0884601921F4604468E
:101BF00040B94FF0500383F31188BFF36F8FBFF3E9
:101C00004F8FFEE751B9036C43B14FF0500383F39C
:101C10001188BFF36F8FBFF34F8FFEE7022F0BD1F9
:101C2000E36B012B08D04FF0500383F31188BFF30F
:101C30006F8FBFF34F8FFEE700F0E6FF064650B907
:101C4000019B4BB14FF0500383F31188BFF36F8FAB
:101C5000BFF34F8FFEE700264FF0000937E0019DEC
:101C60001DB901F0B7FB002052E016B902A800F040
:101C700077FF01F0AFFB00F031FD01F08BFB94F832
:101C80004430FF2B08BF84F8449094F84530FF2B74
:101C900008BF84F8459001F09DFB01A902A800F05F
:101CA0006BFF00284AD101F075FBA26BE36B9A42EF
:101CB00031D101F08FFB019904F1100000F0D4FE46
:101CC0002046FFF7A2FE00F0B5FD60B3012601F04B
:101CD00061FBA26BE36B9A4201D3022FBFD13A465C
:101CE00041462046FFF746FE636A1BB104F124001B
:101CF00000F0F2FE48B14FF0E0234FF08052C3F8FD
:101D0000042DBFF34F8FBFF36F8F01F063FB0120F2
:101D100005B0BDE8F08301F05DFB2046FFF775FEDE
:101D200000F088FDD2E74FF0E0234FF08052C3F877
:101D3000042DBFF34F8FBFF36F8FC7E72046FFF728
:101D400064FE00F077FD8EE713B500220B4600908D
:101D500011460120FFF7D0FE044638B1002383600E
:101D60000360C3601A461946FFF73BFF204602B0E6
:101D700010BD38B5044640B94FF0500383F31188C5
:101D8000BFF36F8FBFF34F8FFEE7856800F036FF1C
:101D900085420AD1E368013BE36023B91A4619463C
:101DA0002046FFF71EFF012000E0002038BD70B57F
:101DB0000646502001F056FC044698B1002501214A
:101DC000C0E90F1580F846500060FFF756FE84F812
:101DD0004C60A5602560E5602B462A4629462046D2
:101DE000FFF7FFFE204670BD2DE9F8438946904677
:101DF0001F46044640B94FF0500383F31188BFF3E8
:101E00006F8FBFF34F8FFEE751B9036C43B14FF0B3
:101E1000500383F31188BFF36F8FBFF34F8FFEE73B
:101E2000022F0BD1E36B012B08D04FF0500383F34B
:101E30001188BFF36F8FBFF34F8FFEE701F0C0FB38
:101E4000EFF311864FF0500383F31188BFF36F8FC8
:101E5000BFF34F8FA26BE36B9A4201D3022F23D1C2
:101E600094F84550A36B6DB23A4649462046FFF7B9
:101E700081FD6B1C13D1636A0BB901200BE004F1E7
:101E8000240000F029FE0028F7D0B8F1000FF4D0AC
:101E90000120C8F8000086F31188BDE8F8830135F9
:101EA0006DB284F84550E8E70020F4E72DE9FF41E2
:101EB0000F460192044640B94FF0500383F3118856
:101EC000BFF36F8FBFF34F8FFEE751B9036C43B180
:101ED0004FF0500383F31188BFF36F8FBFF34F8F21
:101EE000FEE700F091FE064650B9019B4BB14FF062
:101EF000500383F31188BFF36F8FBFF34F8FFEE75B
:101F000000264FF000083DE0019D1DB901F062FA86
:101F1000002056E016B902A800F022FE01F05AFA9D
:101F200000F0DCFB01F036FA94F84430FF2B08BFD8
:101F300084F8448094F84530FF2B08BF84F845802E
:101F400001F048FA01A902A800F016FE002841D1CC
:101F50002046FFF704FDB8B3019904F1240000F016
:101F600083FD2046FFF751FD00F064FC48B94FF0B7
:101F7000E0234FF08052C3F8042DBFF34F8FBFF31F
:101F80006F8F012601F006FAA56B002DBCD03946F3
:101F90002046013DFFF723FDA563236973B104F1DA
:101FA000100000F099FD48B14FF0E0234FF080524F
:101FB000C3F8042DBFF34F8FBFF36F8F01F00AFA00
:101FC000012004B0BDE8F0812046FFF71EFD00F0BF
:101FD00031FCD6E72046FFF718FD00F02BFC204629
:101FE000FFF7BDFC0028CCD092E7F0B585B00446E1
:101FF000019140B94FF0500383F31188BFF36F8F05
:10200000BFF34F8FFEE7056C45B14FF0500383F3EC
:102010001188BFF36F8FBFF34F8FFEE700F0F4FD21
:10202000064650B9019B5BB14FF0500383F3118812
:10203000BFF36F8FBFF34F8FFEE72E46002753E0AD
:102040000546FBE7019B63B945B14FF0500383F3AD
:102050001188BFF36F8FBFF34F8FFEE701F0BAF91E
:1020600062E016B902A800F07BFD01F0B3F900F0C0
:1020700035FB01F08FF994F84430FF2B08BF84F84A
:10208000447094F84530FF2B08BF84F8457001F088
:10209000A1F901A902A800F06FFD00284DD120464A
:1020A000FFF75DFC002842D023683BB901F072F9CC
:1020B000A06800F0B9FD054601F08CF9019904F122
:1020C000240000F0D1FC2046FFF79FFC00F0B2FB9B
:1020D00048B94FF0E0234FF08052C3F8042DBFF30E
:1020E0004F8FBFF36F8F012601F054F9A36B002BC4
:1020F000A8D0013BA363236813B900F06DFEA06074
:10210000236973B104F1100000F0E6FC48B14FF010
:10211000E0234FF08052C3F8042DBFF34F8FBFF37D
:102120006F8F01F057F90125284605B0F0BD204614
:10213000FFF76BFC00F07EFBD5E72046FFF765FC60
:1021400000F078FB2046FFF70AFC0028CBD0002DDA
:10215000EAD001F01FF9616A19B1236B1968C1F166
:102160003801A06800F0E6FD002501F033F9DBE757
:1021700037B5044640B94FF0500383F31188BFF3DD
:102180006F8FBFF34F8FFEE78568019100F036FD3A
:102190008542019905D1E3680133E360012003B072
:1021A00030BD2046FFF721FF0028F8D0E368013357
:1021B000E360F4E72DE9F84389469046054640B9C7
:1021C0004FF0500383F31188BFF36F8FBFF34F8F2E
:1021D000FEE751B9036C43B14FF0500383F311880C
:1021E000BFF36F8FBFF34F8FFEE701F0E9F9EFF315
:1021F00011874FF0500383F31188BFF36F8FBFF344
:102200004F8FAC6B1CB395F84460494676B22846B4
:10221000FFF7E5FB013C731CAC6313D12B690BB9D1
:1022200001200BE005F1100000F056FC0028F7D06B
:10223000B8F1000FF4D00120C8F8000087F311882E
:10224000BDE8F883013676B285F84460E8E72046B9
:10225000F4E7000010B5074A002352F833402CB9C8
:1022600042F8331002EBC303586010BD0133082B52
:10227000F3D1FAE7E007002070B504460D46164694
:1022800001F088F894F84430FF2B04BF002384F851
:10229000443094F84530FF2B04BF002384F84530C8
:1022A00001F098F8A36B2BB93246294604F12400BB
:1022B00000F0F4FB2046BDE87040FFF7A6BB00002D
:1022C0002DE9F041044601F065F8304B304E1A68B4
:1022D000304F01321A603568002D4BD134601B68D5
:1022E000012B1FD1B84640460135FFF7F7FA382DCC
:1022F00008F11408F7D1DFF8C480274D4046FFF7F6
:10230000EDFA2846FFF7EAFA2448FFF7E7FA2448EF
:10231000FFF7E4FA2348FFF7E1FA234BC3F8008004
:10232000224B1D60224A136801331360214A636403
:102330001168E36A14208B4200FB037004F104016E
:1023400088BF1360FFF7D8FA01F044F81A4B1B68F6
:1023500073B13368DA6AE36A9A4209D24FF0E02334
:102360004FF08052C3F8042DBFF34F8FBFF36F8F30
:10237000BDE8F081104B1B68002BD3D13368DA6ABB
:10238000E36A9A4298BF3460CCE700BF8C0C00200F
:10239000200800202C080020B40C0020D40C0020C1
:1023A000000D0020EC0C002024080020280800204C
:1023B000980C00209C0C0020E80C0020A00C0020B1
:1023C000F8B5154B154E1D680446306804300F46AD
:1023D000FFF7B5FA631C07D137B131681048BDE883
:1023E000F8400431FFF788BA33682C195C6007D3D2
:1023F0000C4B18683168BDE8F8400431FFF788BA23
:10240000094B186831680431FFF782FA074B1A68E4
:10241000A24288BF1C60F8BD140D002020080020D7
:10242000EC0C00202808002024080020C80C002004
:10243000064A13681968064B19B94FF0FF321A6043
:1024400070471268D268D2685268F8E72408002002
:10245000C80C002010B590F8593004463BB9006B09
:1024600001F098F92046BDE8104001F093B9012B26
:10247000F9D0022B08D04FF0500383F31188BFF33B
:102480006F8FBFF34F8FFEE710BD000080B5134C78
:10249000134F144D236873B9134B1B68012BF8D9E4
:1024A0004FF0E0234FF08052C3F8042DBFF34F8F5D
:1024B000BFF36F8FEDE700F06DFFFB68DE68301D46
:1024C000FFF73DFA2B68013B2B602368013B23603B
:1024D00000F080FF3046FFF7BDFFDBE7900C0020E7
:1024E000000D00208C0C00202C0800202DE9F04766
:1024F000DDE909844FEA82094A4606460D46206B0B
:10250000A5211F4601F02CFB226BA9F1040991447F
:1025100029F00709A5B36B1E04F134020F3513F837
:10252000010F02F8010B08B1AB42F8D1002384F887
:102530004330089D372D28BF37254FF0000AE5624C
:10254000E564201DC4F850A0FFF7D3F9C5F13805A4
:1025500004F11800FFF7CDF9C4F854A02461A56177
:10256000646284F858A03A463146484600F0E8FED6
:102570002060B8F1000F01D0C8F80040BDE8F08736
:1025800084F83450D5E770B586B0DDE90B5445B911
:102590004FF0500383F31188BFF36F8FBFF34F8F5A
:1025A000FEE744B94FF0500383F31188BFF36F8FF8
:1025B000BFF34F8FFEE75C260596059E5C2E08D084
:1025C0004FF0500383F31188BFF36F8FBFF34F8F2A
:1025D000FEE72563022584F8595004AD01950A9D54
:1025E00002940095059EFFF781FF2046FFF768FEE5
:1025F000049806B070BD2DE9F043074685B0900001
:1026000088461646994601F02DF80546E8B15C204B
:1026100001F028F80446A8B1002380F859300D9B3A
:10262000056301930C9B0290009332464B46414652
:102630003846FFF75BFF2046FFF742FE012005B05A
:10264000BDE8F083284601F0A5F84FF0FF30F6E72B
:1026500010B588B0002407AA06A905A8CDE905444D
:10266000FFF724F9059B0293069B079A1649174822
:10267000CDE900432346FFF786FF18B300F030FC96
:10268000012814D14FF0500383F31188BFF36F8FEB
:10269000BFF34F8F0E4B4FF0FF321A600D4B186097
:1026A0000D4B1C6008B0BDE8104000F003BF0130C6
:1026B00008D14FF0500383F31188BFF36F8FBFF33E
:1026C0004F8FFEE708B010BD443F00088D2400087E
:1026D000C80C0020E80C0020140D0020024A1368EA
:1026E00001331360704700BF940C0020014B186841
:1026F000704700BF140D002008B500F061FF014BCA
:10270000186808BD140D00203F4B1B682DE9F74FDA
:10271000002B73D13D4B1D6801351D60BDB93C4B8D
:102720001A68126842B14FF0500383F31188BFF367
:102730006F8FBFF34F8FFEE7364A19681068186035
:102740001160354A136801331360FFF771FE334E91
:10275000334F3368DFF8D4809D424FF0000411D22C
:10276000D8F80030DB6A14225343FB58022B2D4B60
:102770001B6828BF0124002B18BF0124204603B08A
:10278000BDE8F08FDFF88890DFF8A4A0D9F800301A
:102790001B681BB94FF0FF333360E1E7D9F8003015
:1027A000DB68D3F80CB0DBF80420954201D232602C
:1027B000D6E70BF1040108460191FFF7C0F8DBF8FA
:1027C0002820019922B10BF11800FFF7B8F8019900
:1027D000DBF82C00DAF800201423904288BFCAF8F6
:1027E000000003FB0070FFF787F8D8F80010DBF853
:1027F0002C20CB6A9A4228BF0124C7E70A4A1368F3
:10280000013313600024B9E7940C0020140D00205C
:102810002408002028080020CC0C0020C80C002030
:102820002C080020180D0020D00C002020080020CB
:102830009C0C0020F7B5314C236843B94FF050038E
:1028400083F31188BFF36F8FBFF34F8FFEE700F064
:10285000A1FD2368013B236024682CB1002400F013
:10286000B9FD204603B0F0BD254B1B68002BF5D009
:10287000244D254E254F1EE0EB68DC6804F118005E
:10288000FFF75DF8211D08460191FFF758F8E36A4C
:10289000326801991420934200FB037088BF3360B3
:1028A000FFF72AF81A4BE26A1B68DB6A9A4202D3E6
:1028B000184B01221A602B68002BDDD10CB1FFF7F9
:1028C000B7FD154D2C6844B1124E0127FFF71CFFD0
:1028D00000B13760013CF9D12C600E4B1B68002B16
:1028E000BCD04FF0E0234FF08052C3F8042DBFF36B
:1028F0004F8FBFF36F8F0124B1E700BF940C00200E
:102900008C0C0020D40C00209C0C00202C080020F3
:1029100020080020180D0020D00C002010B540B970
:102920004FF0500383F31188BFF36F8FBFF34F8FC6
:10293000FEE741B94FF0500383F31188BFF36F8F67
:10294000BFF34F8FFEE7174B1B6843B14FF05003A7
:1029500083F31188BFF36F8FBFF34F8FFEE7FFF74D
:10296000BDFE114B04681A6863182CBF01210021B9
:10297000944203600ED971B9FFF75CFF48B94FF07C
:10298000E0234FF08052C3F8042DBFF34F8FBFF305
:102990006F8F10BD09B99A42EED20021981AFFF745
:1029A0000FFDE9E7940C0020140D002008B550B984
:1029B0004FF0E0234FF08052C3F8042DBFF34F8F48
:1029C000BFF36F8F08BD0A4B196841B14FF0500338
:1029D00083F31188BFF36F8FBFF34F8FFEE7FFF7CD
:1029E0007DFEFFF7EDFCFFF725FF0028E0D0E9E7CB
:1029F000940C0020174B1A68174B70B512B10122C6
:102A00001A6070BD154D1A602A681549142606FB18
:102A100002F3C818CC588CB1446808336468446029
:102A20000B449C4204BF63684360142303FB021100
:102A30004B68D9680B4B19602A60E2E742B94FF046
:102A4000500383F31188BFF36F8FBFF34F8FFEE7FF
:102A5000013ADCE7940C0020180D00209C0C0020AB
:102A60002C0800202008002010B50C4640B94FF07B
:102A7000500383F31188BFF36F8FBFF34F8FFEE7CF
:102A8000054B19681831FEF743FF20460121BDE8C8
:102A90001040FFF795BC00BF2008002038B50D4658
:102AA000144640B94FF0500383F31188BFF36F8F82
:102AB000BFF34F8FFEE7074B19681831FEF71CFF75
:102AC000002C21460CBF28464FF0FF30BDE83840AF
:102AD000FFF776BC20080020C36813B5DC6844B952
:102AE0004FF0500383F31188BFF36F8FBFF34F8F05
:102AF000FEE704F1180108460191FEF720FF124B92
:102B000001991B68EBB9211D08460191FEF717FFDB
:102B10000E4AE36A10680199834288BF13600C4A29
:102B2000142000FB0320FEF7E7FE0A4BE26A1B6855
:102B3000DB6A9A4285BF084B01200020186002B072
:102B400010BD0648EFE700BF940C00209C0C00204D
:102B50002C08002020080020180D0020D40C002094
:102B6000034B1B680360034B1B684360704700BF47
:102B7000CC0C0020140D002070B50C46054640B961
:102B80004FF0500383F31188BFF36F8FBFF34F8F64
:102B9000FEE741B94FF0500383F31188BFF36F8F05
:102BA000BFF34F8FFEE700F0F5FB0F4B196823686A
:102BB0005A1C10D00D482E6800686A68864201D001
:102BC0008A420FD9881A83420AD95B1A13442360B8
:102BD0002846FFF7C5FF002400F0FCFB204670BD2F
:102BE000002323600124F7E7140D0020CC0C002003
:102BF000014B01221A607047180D0020014B186824
:102C0000704700BF20080020054B1B6833B1054BFF
:102C10001B68002B0CBF022000207047012070476A
:102C2000E80C0020940C002073B5044648B31C4DFA
:102C3000C36A2A68D26A934229D28269194E002A4D
:102C4000A1BF2A68D26AC2F138028261142202FB53
:102C5000036342699A4216D1011D08460191FEF7AD
:102C60006EFE2B68104ADB6A10680199E3628342AA
:102C70004FF0140000FB036088BF1360FEF73CFEBA
:102C8000012002B070BD2B68DB6AC362F8E72B68D5
:102C9000C06CDC6AA0422CBF00200120F1E700BF1D
:102CA000200800202C0800209C0C002013B510B92F
:102CB000002002B010BD1C4B1C68844208D04FF0AD
:102CC000500383F31188BFF36F8FBFF34F8FFEE77D
:102CD000236D43B94FF0500383F31188BFF36F8F17
:102CE000BFF34F8FFEE7E16AE26C013B914223653F
:102CF000DED0002BDCD1211D08460191FEF71FFE1E
:102D0000E36C0199E362C3F13802A261074A1068DB
:102D1000834288BF1360064A142000FB0320FEF79D
:102D2000EBFD0120C5E700BF200800209C0C00201F
:102D30002C08002037B50446002844D0026D42B963
:102D40004FF0500383F31188BFF36F8FBFF34F8FA2
:102D5000FEE7C36C994238BF1946C36A8B4232D032
:102D6000012A30D1194A1268824208D14FF050032B
:102D700083F31188BFF36F8FBFF34F8FFEE7826934
:102D8000134DC162002A4FF0140202FB0353426943
:102D9000A4BFC1F1380181619A4214D1011D0846D6
:102DA0000191FEF7CCFD0B4AE36A1068019983425A
:102DB0004FF0140000FB035088BF136003B0BDE860
:102DC0003040FEF799BD03B030BD00BF20080020A1
:102DD0002C0800209C0C0020044B1A681AB11968BA
:102DE0000A6D01320A651868704700BF200800208C
:102DF000F7B5114C00F0CEFA2568BDB90F4F104E53
:102E00003846FEF76BFD3046FEF768FD0D4B0E4A67
:102E10001F600E4B10211E600A200D4B0095FEF71F
:102E20006BFE206010B10B49FFF714FA03B0BDE848
:102E3000F04000F0CFBA00BF400E0020C40D0020CB
:102E4000D80D00201C0D0020240D0020200D002096
:102E5000F00D0020493F0008914208B54160006133
:102E60000AD8D21A83699A420DD2084B011D1868FC
:102E7000FEF74EFD002008BD9A4201D2994202D2CF
:102E8000034B011DF3E70120F5E700BF200D0020F3
:102E90001C0D00202DE9F041079C804616461F4678
:102EA0000D4641B94FF0500383F31188BFF36F8F84
:102EB000BFF34F8FFEE78CB1FFF79AFF069BC4F874
:102EC0000080C4E906572362201DFEF712FD2EB1D3
:102ED00094F8283043F0040384F82830BDE8F081EA
:102EE00010B588B0FFF784FF124B1B68B3B1002404
:102EF00007AA06A905A8CDE90544FEF7E3FC059B52
:102F00000293069B019302230093079A0A490B48F8
:102F10002346FFF738FB0A4B186040B94FF05003C7
:102F200083F31188BFF36F8FBFF34F8FFEE701204C
:102F300008B010BD400E00204E3F0008CD30000804
:102F4000440E002030B587B005462C20CDE9042181
:102F5000039300F087FB044658B1002084F8280052
:102F60000A980090DDE90332059901942846FFF79D
:102F700091FF204607B030BD30B585B02C250395B4
:102F8000039D099C2C2D08D04FF0500383F311882A
:102F9000BFF36F8FBFF34F8FFEE7039D44B94FF030
:102FA000500383F31188BFF36F8FBFF34F8FFEE79A
:102FB000022584F82850089D01940095FFF76AFFC8
:102FC000204605B030BD00007FB5164604461A46BF
:102FD00040B94FF0500383F31188BFF36F8FBFF3F5
:102FE0004F8FFEE70D4D286880B10529CDE9001609
:102FF00002940DDCFFF708FE0023022808BF089AA0
:10300000286818BF1A466946FEF7EBFD04B070BD8C
:1030100000236946FEF7E8FEF8E700BF400E0020F7
:103020002DE9FF47DFF8A0800646FFF75FFBD8F8E1
:1030300000308342054640D9214F4FF000093B68DC
:103040001A685AB91F4A116839601360012328466B
:103050003360C8F8005004B0BDE8F087DB68DC6876
:10306000D3F800A0211D08460391FEF768FC236AEF
:103070002046984794F82830039913F0040FDED0C7
:10308000A36953449A4505D2386863602461FEF70A
:103090003FFCD4E70023CDF8009052461946204665
:1030A000FFF792FF0028CAD14FF0500383F3118835
:1030B000BFF36F8FBFF34F8FFEE70023C7E700BF5B
:1030C0001C0D0020200D0020EC0D00202DE9F04308
:1030D0006E4D6F4E89B02B68D3F80080B8F1000FA9
:1030E00035D0DB68D3F800800024FFF7F7FA04A896
:1030F000FFF796FF049B8146002B69D1002C4CD131
:10310000404550D3FFF796FB2B68DB68DF68381D1E
:10311000FEF715FC97F8283058071AD5B9694346C9
:103120004A4641443846FFF797FEB0B10094234623
:10313000424621463846FFF747FF70B94FF050032B
:1031400083F31188BFF36F8FBFF34F8FFEE7012426
:10315000CBE723F0010387F828303B6A38469847CD
:103160003068002204A9FEF7A1FE0028B3D0049B1A
:103170000698002B2FDB069C6369002B32D103A835
:10318000FFF74EFF049B0246092BE9D8DFE803F066
:103190002E2E2E575E762E2E575E3E4B1B681C68D9
:1031A000B4FA84F4640930682246A8EB0901FFF7F9
:1031B00063F8FFF73FFB0028D2D14FF0E0234FF038
:1031C0008052C3F8042DBFF34F8FBFF36F8FC7E753
:1031D000FFF730FBC4E7059B07999847049B002B3A
:1031E000BEDBC8E7201DFEF7AAFBC8E794F828302D
:1031F000A16943F0010384F82830059B2046194457
:10320000FFF72AFE0028ABD0236A2046984794F89F
:1032100028305907A4D5A269059900230A440093D0
:1032200019462046FFF7D0FE002899D14FF05003F1
:1032300083F31188BFF36F8FBFF34F8FFEE794F8CE
:10324000283023F0010384F8283089E794F82830E7
:1032500043F0010384F828300599A16141B94FF08A
:10326000500383F31188BFF36F8FBFF34F8FFEE7D7
:10327000034601442046FFF7EFFD71E794F828303C
:103280009A07DED4204600F085FA69E71C0D00207D
:10329000400E0020200D002013B5044640B94FF029
:1032A000500383F31188BFF36F8FBFF34F8FFEE797
:1032B00000F070F8E069019000F08CF8019802B01D
:1032C00010BD000008480068006880F308884FF0CF
:1032D000000080F3148862B661B6BFF34F8FBFF36E
:1032E0006F8F00DF00BF000008ED00E0DFF80C008A
:1032F000016841F4700101607047000088ED00E052
:1033000082B0002301930D4B1B68013308D04FF0AE
:10331000500383F31188BFF36F8FBFF34F8FFEE726
:103320004FF0500383F31188BFF36F8FBFF34F8FBC
:10333000019B002BFCD002B0704700BF2C00002086
:103340004FF0807340F8043C074B40F80C3C21F0F0
:1033500001016FF0020340F8081C40F8202C40F8EF
:10336000243C4438704700BF0133000800000000CF
:10337000074B19680868B0E8F04F80F30988BFF37D
:103380006F8F4FF0000080F311887047AFF300801B
:10339000200800204FF0500383F31188BFF36F8F94
:1033A000BFF34F8F0A4A13680133012B13600ED10C
:1033B0004FF0E023D3F8043DDBB243B14FF05003AC
:1033C00083F31188BFF36F8FBFF34F8FFEE7704712
:1033D0002C000020084A136843B94FF0500383F3D0
:1033E0001188BFF36F8FBFF34F8FFEE7013B136070
:1033F0000BB983F3118870472C00002000000000F7
:10340000EFF30980BFF36F8F154B1A681EF0100F92
:1034100008BF20ED108A20E9F04F10602DE9090067
:103420004FF0500080F31188BFF34F8FBFF36F8FC1
:10343000FFF7E0FA4FF0000080F3118809BC19682B
:103440000868B0E8F04F1EF0100F08BFB0EC108A0B
:1034500080F30988BFF36F8F704700BFAFF3008020
:103460002008002008B54FF0500383F31188BFF304
:103470006F8FBFF34F8FFFF747F928B14FF0E0236D
:103480004FF08052C3F8042D002383F3118808BD48
:103490004FF0E022002313619361054B4FF47A71E2
:1034A0001B68B3FBF1F3013B5361072313617047C2
:1034B000200000204FF0E02337B5D3F8001D3A4A32
:1034C000914208D14FF0500383F31188BFF36F8FFF
:1034D000BFF34F8FFEE7D3F8002D344B9A4208D14B
:1034E0004FF0500383F31188BFF36F8FBFF34F8FFB
:1034F000FEE72F4B1A78D2B20192FF221A701B7886
:103500002C4ADBB28DF803309DF8033003F05003F2
:103510001370294A0723136000219DF80300000659
:1035200003F1FF340CD411B1032B136011D04FF011
:10353000500383F31188BFF36F8FBFF34F8FFEE704
:103540009DF803305B00DBB28DF803300121234688
:10355000E3E74FF440731360019B154A4FF0E024FA
:10356000DBB21370D4F8203D43F47003C4F8203D5F
:10357000D4F8203D43F07043C4F8203DFFF788FFA6
:103580000E4B00251D60FFF7B1FED4F8343F43F029
:103590004043C4F8343FFFF795FEFFF72BFAFFF7DF
:1035A000AFFE284603B030BD71C20F4170C20F415B
:1035B00000E400E0480E00204C0E00202C0000200B
:1035C000EFF305830F2B0ED9114A9B5C114A127839
:1035D0009A4208D94FF0500383F31188BFF36F8FDD
:1035E000BFF34F8FFEE74FF0E0230B4AD3F80C3DBB
:1035F000126803F4E063934208D94FF0500383F359
:103600001188BFF36F8FBFF34F8FFEE7704700BF86
:10361000F0E300E0480E00204C0E002010B50F4BE8
:103620001A461B688342FBD354681119884201BFB4
:103630004168104609195160446801198B4207D14D
:10364000074909688B421FBF59681B680919416007
:103650009042036018BF106010BD00BF684A002090
:10366000500E00202DE9F0410446FFF737F842489C
:10367000424D03680BBB42494E071FBFCB1D23F0D1
:10368000070301F57052D21A14BF19464FF4705255
:103690000A443C4E083A22F007020023736031606E
:1036A000C2E90033531AC1E900230260364A1360AD
:1036B000364A13604FF000432B602F68274255D1E4
:1036C000002C46D004F1080361071CBF23F0070358
:1036D0000833002B4AD02D4C26689E4246D3294AF7
:1036E00015686968994204D2D5F800C0BCF1000F92
:1036F00015D10068A84239D0C91A2868D2F80080CC
:103700001060102912D9E81842070BD04FF050036F
:1037100083F31188BFF36F8FBFF34F8FFEE72A4605
:103720006546DEE741606B60FFF778FF6B6816491E
:10373000174A0868F61A1F4300232B601368266097
:10374000864203F1010338BF0E6008F108046F6080
:103750001360FFF76FF863070AD04FF0500383F34D
:103760001188BFF36F8FBFF34F8FFEE70024F0E7A0
:103770002046BDE8F08100BF500E0020544A0020D2
:10378000540E0020684A00205C4A0020584A00205D
:10379000604A002010B5044690B31A4A50F8043C21
:1037A0001268134208D14FF0500383F31188BFF31E
:1037B0006F8FBFF34F8FFEE750F8081C41B14FF0F9
:1037C000500383F31188BFF36F8FBFF34F8FFEE772
:1037D00023EA020340F8043CFEF780FF0A4A54F84B
:1037E000043C1168A4F108000B441360FFF716FFB6
:1037F000064A1368BDE8104001331360FFF71AB89A
:1038000010BD00BF544A0020584A0020644A0020DE
:10381000DFF868C0DCF808302DE9F041C3F120037F
:10382000154DB0FBF3F202FB130E0023C5E9003384
:10383000DCF800701E461C461A461946714514D223
:103840000E2A91BF01320136012300223C46644515
:1038500007D0D4E90208824201D1B04503D02468E0
:10386000F5E70131C9B20124E8E704B12A6003B1E8
:103870006E60BDE8F08100BF7C4A0020704A0020E5
:10388000F7B50B4F3C6805466E46BC420DD0D4E9F7
:103890000201AB6886E803000BB900F004F9EB689D
:1038A0003146284698472468EFE703B0F0BD00BFD3
:1038B000704A002038B504460068844205D0056887
:1038C000102100F0C3F82846F7E738BD70B504466C
:1038D00010200E46154600F0BBF8034600F1080222
:1038E00095E8030082E803001846314600F0CFF85F
:1038F000A3680133A36070BDF0B51C4E356887B076
:103900000027B542CDE9017701AA15D092E803005E
:1039100005F1080383E803002C68B44223D0B368A0
:103920002568013B2046B36000F0B8F8204610211E
:1039300000F08CF82C46F0E703AC21462046CDE998
:1039400003440597FFF7C2FF0399A14208D022461E
:10395000284600F08EF8AA68059B05971344AB60D3
:103960002046FFF7A7FF07B0F0BD00BF704A002058
:1039700030B5274D6A6885B0D2E90232032805D8F0
:10398000DFE800F00214181BDAB1013ACDE9023287
:103990002C68AC421DD0A168994218D1E1688A42D6
:1039A00015D1FFF7A9FF012005B030BDB2FA82F2B0
:1039B0005209EBE73BB1013BE8E70E2B05D8013399
:1039C000E4E70122E2E70F23E0E70023DEE72468D3
:1039D000DFE702AA21462046FFF778FF0D4B029948
:1039E0001A68914207D15B680399A268994202D193
:1039F000202AD8D1D5E7AB6828680190013BAB609D
:103A000000F04CF80198102100F020F80020CBE7DE
:103A1000704A00207C4A002007B507490023C1E90D
:103A200000118B606A460846CDE90033FFF74EFF70
:103A300003B05DF804FB00BF704A002008B50248DF
:103A4000FFF738FF08BD00BF704A002000F02EB815
:103A5000012838BF012010B50446204600F062F866
:103A600030B900F025F808B900F02AF88047F4E7EB
:103A700010BD904210B509D054684B6820601A60A0
:103A8000436819604460486850604B6010BD4B68E3
:103A900043604B680160186048607047D0E90032AD
:103AA00013605A60704708B500F00AF800F042B899
:103AB000024B1868BFF35B8F704700BF844A002039
:103AC00008B5062000F06CF90120FCF747FF000064
:103AD000014B1868704700BF3000002070B50D4DD5
:103AE0000D4C641BA4100026A64209D10B4D0C4CB2
:103AF00000F080F9641BA4100026A64205D170BD19
:103B000055F8043B98470136EEE755F8043B9847D3
:103B10000136F2E7603F0008603F0008603F0008A0
:103B2000683F0008024B0146186800F08DB800BFDE
:103B300030000020024B0146186800F019B800BFA1
:103B4000300000200A44914200F1FF3300D1704759
:103B500010B511F8014B03F8014F9142F9D110BD96
:103B600002440346934200D1704703F8011BF9E772
:103B700037B5002944D051F8043C0190002BA1F145
:103B80000404B8BFE41800F027F91E4A019813682E
:103B900033B96360146003B0BDE8304000F022B96F
:103BA000A34208D9256861198B4201BF19685B6877
:103BB00049192160EDE71A465B680BB1A342FAD9B7
:103BC00011685518A5420BD1246821445418A3420A
:103BD0001160E0D11C685B68536021441160DAE732
:103BE00002D90C230360D6E7256861198B4204BF14
:103BF00019685B68636004BF491921605460CAE7B3
:103C000003B030BD884A002070B50E4E0C463168B6
:103C1000054611B900F08CF830602146284600F0C6
:103C200087F8431C0AD0C41C24F00304A04207D028
:103C3000211A284600F07CF8013001D14FF0FF3402
:103C4000204670BD8C4A00202DE9F041CD1C25F0A6
:103C5000030508350C2D38BF0C25002D074601DB68
:103C6000A94205D90C233B6000263046BDE8F0810F
:103C70002E4E00F0B1F833681C4634BB2946384656
:103C8000FFF7C2FF431C04464DD134682646002E80
:103C900040D123683146384604EB030800F048F869
:103CA00080453AD1216803356D1A25F003050835A2
:103CB0000C2D38BF0C2529463846FFF7A5FF0130EB
:103CC0002BD023682B4423600EE02268521B1ED4A5
:103CD0000B2A16D96119A342256018BF5960636881
:103CE00008BF316062514B60384604F10B0600F0AA
:103CF00079F826F00706231DF21AB6D09B1BA350B5
:103D0000B3E76268A3420CBF32605A60ECE7234617
:103D10006468B2E734467668B9E70C233B603846FE
:103D200000F060F8A1E72560DEE700BF884A0020C8
:103D300038B5064D0023044608462B60FCF714FEF8
:103D4000431C02D12B6803B1236038BD904A002088
:103D50001F2938B504460D4604D9162303604FF0D9
:103D6000FF3038BD426C12B152F821304BB92046B9
:103D700000F030F82A4601462046BDE8384000F001
:103D800017B8012B0AD0591C03D116230360012058
:103D9000E7E7002442F82540284698470020E0E75E
:103DA000024B01461868FFF7D3BF00BF3000002068
:103DB00038B5074D00230446084611462B60FCF732
:103DC000C5FD431C02D12B6803B1236038BD00BF81
:103DD000904A0020FCF7B8BD014800F009B800BFC8
:103DE000944A0020014800F004B800BF944A002023
:103DF00070477047F8B500BFF8BC08BC9E467047D6
:0C3E0000F8B500BFF8BC08BC9E46704737
:103E0C0003000000020000000000000001000000A0
:103E1C000200000003000000010000000000000090
:103E2C00646973706C61794D757465780062757432
:103E3C00746F6E54696D657200627574746F6E5137
:103E4C007565756500627574746F6E5461736B0083
:103E5C0072656672657368536E616B65546173004D
:103E6C0000080240000800000008024000020000A8
:103E7C000008024040000000000802400001000061
:103E8C000000024000800000001002400010000002
:103E9C000010024000200000001002400040000012
:103EAC000010024000800000513E0008000000009D
:103EBC0000000000000000000000000000020000F4
:103ECC00180000000000000000000000453E000843
:103EDC0000000000000000000000000000000000D6
:103EEC0000000000393E0008000000000000000047
:103EFC00000000002C3E0008000000000000000044
:103F0C00000000005C3E0008000000000000000003
:103F1C00000000000000000000020000080000008B
:103F2C000000000000000000000000000000000085
:103F3C00010203040607080949444C4500546D72FC
:0C3F4C005100546D722053766300000099
:083F5800A8C2FF7F0100000078
:083F6000B5010008193A000840
:083F6800910100083D3A000838
:103F70000000000000100240000800000010024095
:103F8000000400000010024080000000943E000881
:103F90000024F4000100000010000000AAAAAAAA50
:103FA00034000020000000000000000000000000BD
:103FB0000000000000000000000000000000000001
:103FC00000000000000000000000000000000000F1
:103FD00000000000000000000000000000000000E1
:103FE00000000000000000000000000000000000D1
:103FF00000000000000000000000000000000000C1
:0440000000000000BC
:04000005080009BD29
:00000001FF
